:0400000058EF00F0C5
:100008005B82FACF01F0FBCF02F0D9CF03F0DACF51
:1000180004F0F2AC12EF00F014EF00F04EEF00F035
:100028009DA819EF00F01BEF00F031EF00F09EA83B
:1000380020EF00F022EF00F031EF00F002D82FEFB0
:1000480000F00500FA6E0001FA51FD6EFB51FE6EDC
:10005800FF6AFA5012004EEF00F09DAA36EF00F04A
:1000680038EF00F04EEF00F09EAA3DEF00F03FEFB2
:1000780000F04EEF00F002D84CEF00F00500FA6EE9
:100088000001F851FD6EF951FE6EFF6AFA50120038
:100098004EEF00F004C0DAFF03C0D9FF02C0FBFF37
:0C00A80001C0FAFF5B92110076EF21F01E
:1010000000604538452845243600395445503BEAB0
:1010100045E245DA45D245CA45C245BA4548450884
:101020003E48656C6C69676B656974203D20256678
:101030006C75780D0A00494E46004E414E00696EAF
:1010400066006E616E006C660000000E0001D16FDC
:10105000000ED06F34C0E2F035C0E3F036C0E4F0EB
:1010600037C0E5F0E5BF39EF08F037EF08F04FEF94
:1010700008F0000ED16F010ED06FE2C005F0E3C0A2
:1010800006F0E4C007F0E5C008F00CEC21F005C064
:10109000E2F006C0E3F007C0E4F008C0E5F0000E9F
:1010A0000001E96F000EE86FADC0D4F0AEC0D5F01E
:1010B000D051D111D8A45FEF08F061EF08F068EFCC
:1010C00008F0B1A566EF08F068EF08F082EF08F0CD
:1010D000D051D111D8A46FEF08F071EF08F077EF7D
:1010E00008F0000EB76F2B0EB66F7BEF08F0000E06
:1010F000B76F2D0EB66FB6C000F1E84BE92BD407E1
:10110000D8A0D507E2C005F0E3C006F0E4C007F0C0
:10111000E5C008F060EC19F005040610D8A493EFC0
:1011200008F095EF08F0ECEF08F0BF0E396EFF0EF7
:101130003A6E38503B6E3C6A39503B263A503C225E
:101140003C500AE11A0E3B5CD8A0A9EF08F0ACEFC6
:1011500008F0010EADEF08F0000E0001B86FB96B9A
:10116000B851B911D8B4B7EF08F0B9EF08F0C7EF2C
:1011700008F0000EE825056E010EE921066E360E18
:10118000076E100E086ECAEC1FF0D3EF08F0000EC9
:10119000E825056E010EE921066E3E0E076E100E63
:1011A000086ECAEC1FF00001FD0ED427FF0ED523F8
:1011B00032C017F033C018F0000E196E010E1A6E0F
:1011C000D4C01BF0D5C01CF04DEC1AF017C032F0A3
:1011D00018C033F077EF0EF0E2C005F0E3C006F080
:1011E000E4C007F0E5C008F060EC19F00550061007
:1011F000D8A4FDEF08F0FFEF08F056EF09F0BF0E9E
:10120000396EFF0E3A6E38503B6E3C6A39503B26C1
:101210003A503C223C500AE11A0E3B5CD8A013EF36
:1012200009F016EF09F0010E17EF09F0000E0001AA
:10123000BA6FBB6BBA51BB11D8B421EF09F023EFE1
:1012400009F031EF09F0000EE825056E010EE921E5
:10125000066E3A0E076E100E086ECAEC1FF03DEFD8
:1012600009F0000EE825056E010EE921066E420E1A
:10127000076E100E086ECAEC1FF00001FD0ED42799
:10128000FF0ED52332C017F033C018F0000E196ED0
:10129000010E1A6ED4C01BF0D5C01CF04DEC1AF034
:1012A00017C032F018C033F077EF0EF0000E0001D7
:1012B000EA6F000EEB6F800EEC6F3F0EED6F000ECD
:1012C000E76F000EE66FE2C005F0E3C006F0E4C091
:1012D00007F0E5C008F0000E096E000E0A6E000E61
:1012E0000B6E000E0C6E2BEC1CF0D8B07AEF09F0F0
:1012F0007CEF09F0FFEF09F09BEF09F0EAC005F081
:10130000EBC006F0ECC007F0EDC008F0000E096E6F
:10131000000E0A6E200E0B6E410E0C6ED8EC10F013
:1013200005C0EAF006C0EBF007C0ECF008C0EDF035
:101330000001E64BE72BE2C01EF0E3C01FF0E4C063
:1013400020F0E5C021F0000E096E000E0A6E200E9E
:101350000B6E410E0C6EEAC005F0EBC006F0ECC05F
:1013600007F0EDC008F0D8EC10F005C022F006C080
:1013700023F007C024F008C025F0DEEC18F0D8B048
:10138000C4EF09F0C6EF09F07EEF09F0E6EF09F0CF
:10139000EAC005F0EBC006F0ECC007F0EDC008F0C5
:1013A000000E096E000E0A6E200E0B6E410E0C6EC2
:1013B000EDEC12F005C0EAF006C0EBF007C0ECF06F
:1013C00008C0EDF00001E607D8A0E707E2C01EF074
:1013D000E3C01FF0E4C020F0E5C021F0EAC022F035
:1013E000EBC023F0ECC024F0EDC025F0DEEC18F0EB
:1013F000D8A0FDEF09F0FFEF09F0C8EF09F038C001
:101400000BF00C6A9AEC1FF00B500001D76FD7C09D
:10141000D6F0670ED719D8A410EF0AF012EF0AF031
:1014200038EF0AF0AF51B011D8A419EF0AF01BEF52
:101430000AF01FEF0AF0000EB06F010EAF6FB0BFE1
:101440002CEF0AF0B05106E1AF05D8B02AEF0AF050
:101450002CEF0AF032EF0AF0000ED36F060ED26FB7
:1014600041EF0AF0AFC0D2F0B0C0D3F041EF0AF0C4
:10147000B0BF3DEF0AF03FEF0AF02CEF0AF032EF79
:101480000AF0670ED719D8A448EF0AF04AEF0AF01D
:1014900079EF0AF0E7AF58EF0AF0FC0EE65DFF0EB9
:1014A000E759D8A056EF0AF058EF0AF077EF0AF0A4
:1014B000FF0E396EFF0E3A6ED2C03BF0D3C03CF047
:1014C00039503B263A503C22E6513B5C3C50800A66
:1014D0003D6EE751800A3D58D8A071EF0AF073EFD6
:1014E0000AF077EF0AF0660ED66F79EF0AF0650E14
:1014F000D66FD2C0C8F0D3C0C9F0670ED719D8A430
:1015000084EF0AF086EF0AF096EF0AF0660ED6191D
:10151000D8A48DEF0AF08FEF0AF098EF0AF0E7BF3A
:1015200096EF0AF094EF0AF098EF0AF0C84BC92B37
:10153000660ED619D8A49FEF0AF0A1EF0AF0C1EF0A
:101540000AF0E7BFA8EF0AF0A6EF0AF0B4EF0AF03E
:10155000000EEA6F000EEB6F800EEC6F3F0EED6F2A
:10156000000EE76F000EE66F670ED719D8B4BBEF19
:101570000AF0BDEF0AF0C1EF0AF0E651C827E751C3
:10158000C923000EE16F000EE06FE2C0D8F0E3C0A7
:10159000D9F0E4C0DAF0E5C0DBF0EAC0CAF0EBC095
:1015A000CBF0ECC0CCF0EDC0CDF052EF0BF0D8C0DA
:1015B00005F0D9C006F0DAC007F0DBC008F0EAC0D9
:1015C00009F0EBC00AF0ECC00BF0EDC00CF0EDEC54
:1015D00012F005C01EF006C01FF007C020F008C0C2
:1015E00021F078EC16F01EC0DCF01FC0DDF020C04A
:1015F000DEF021C0DFF0DCC005F0DDC006F0DEC0AB
:1016000007F0DFC008F05BEC18F005C0CEF006C0B4
:10161000CFF0D8C01EF0D9C01FF0DAC020F0DBC078
:1016200021F0EAC009F0EBC00AF0ECC00BF0EDC00D
:101630000CF0DCC005F0DDC006F0DEC007F0DFC056
:1016400008F0D8EC10F005C022F006C023F007C067
:1016500024F008C025F025EC20F01EC0D8F01FC0F3
:10166000D9F020C0DAF021C0DBF0EAC005F0EBC011
:1016700006F0ECC007F0EDC008F0000E096E000E99
:101680000A6E200E0B6E410E0C6EEDEC12F005C0D2
:10169000EAF006C0EBF007C0ECF008C0EDF0000186
:1016A000E04BE12BC851E05DE151800A396EC95130
:1016B000800A3958D8A05FEF0BF061EF0BF0D7EF3D
:1016C0000AF0EAC005F0EBC006F0ECC007F0EDC090
:1016D00008F0000E096E000E0A6EA00E0B6E400E92
:1016E0000C6ED8EC10F005C0DCF006C0DDF007C0D1
:1016F000DEF008C0DFF0D8C01EF0D9C01FF0DAC09D
:1017000020F0DBC021F0DCC022F0DDC023F0DEC021
:1017100024F0DFC025F0DEEC18F0D8B092EF0BF02B
:1017200094EF0BF09FEF0BF0000E0001DC6F000E4A
:10173000DD6F000EDE6F000EDF6FC8EF0BF0D8C05C
:1017400005F0D9C006F0DAC007F0DBC008F0DCC055
:1017500009F0DDC00AF0DEC00BF0DFC00CF02BECAE
:101760001CF0D8A0B6EF0BF0B8EF0BF0C8EF0BF001
:101770000001CEB1BEEF0BF0C0EF0BF0C8EF0BF0E5
:10178000000EDC6F000EDD6F000EDE6F000EDF6FEF
:10179000E2C005F0E3C006F0E4C007F0E5C008F0E1
:1017A000DCC009F0DDC00AF0DEC00BF0DFC00CF0D9
:1017B00078EC0EF005C0D8F006C0D9F007C0DAF01A
:1017C00008C0DBF0D8C01EF0D9C01FF0DAC020F08E
:1017D000DBC021F0000E096E000E0A6E200E0B6EAB
:1017E000410E0C6ECAC005F0CBC006F0CCC007F0AD
:1017F000CDC008F0D8EC10F005C022F006C023F0F0
:1018000007C024F008C025F0DEEC18F0D8A00BEFDC
:101810000CF00DEF0CF036EF0CF00001E64BE72B6F
:10182000CAC005F0CBC006F0CCC007F0CDC008F0B0
:10183000000E096E000E0A6E200E0B6E410E0C6E2D
:10184000D8EC10F005C0CAF006C0CBF007C0CCF051
:1018500008C0CDF0660E0001D619D8A432EF0CF006
:1018600034EF0CF036EF0CF0C84BC92BCAC0EAF0CD
:10187000CBC0EBF0CCC0ECF0CDC0EDF0650E0001BC
:10188000D619D8B446EF0CF048EF0CF04EEF0CF040
:10189000E6C0C6F0E7C0C7F052EF0CF0000EC76F0D
:1018A000000EC66F000EC56F000EC46F000EC36F32
:1018B000000EC26F000EE16F000EE06F4DEF0DF0F5
:1018C000D8C005F0D9C006F0DAC007F0DBC008F0D8
:1018D000EAC009F0EBC00AF0ECC00BF0EDC00CF070
:1018E000EDEC12F005C01EF006C01FF007C020F09E
:1018F00008C021F078EC16F01EC0DCF01FC0DDF04F
:1019000020C0DEF021C0DFF0DCC005F0DDC006F055
:10191000DEC007F0DFC008F05BEC18F005C0CEF0C9
:1019200006C0CFF00001B1B998EF0CF09AEF0CF0BF
:10193000B7EF0CF0CE51CF11D8A4A1EF0CF0A3EF6C
:101940000CF0B7EF0CF0670ED719D8A4AAEF0CF083
:10195000ACEF0CF0B7EF0CF0C7BFB3EF0CF0B1EF8A
:101960000CF0B7EF0CF0C24BC32B01EF0DF0C451DC
:10197000C511D8A4BEEF0CF0C0EF0CF0EAEF0CF0EC
:10198000C7BFC7EF0CF0C5EF0CF0EAEF0CF0000E8C
:10199000E825D96E010EE921DA6E2E0EDF6EE84BD6
:1019A000E92BD407D8A0D507000EC56F010EC46F70
:1019B000EAEF0CF0000EE825D96E010EE921DA6E8F
:1019C000300EDF6EE84BE92BD407D8A0D507C2074D
:1019D000D8A0C307C251C311D8A4F1EF0CF0F3EFA4
:1019E0000CF0DAEF0CF0000EE825D96E010EE921BB
:1019F000DA6ECE51300FDF6EE84BE92BD407D8A05A
:101A0000D507D8C01EF0D9C01FF0DAC020F0DBC067
:101A100021F0EAC009F0EBC00AF0ECC00BF0EDC019
:101A20000CF0DCC005F0DDC006F0DEC007F0DFC062
:101A300008F0D8EC10F005C022F006C023F007C073
:101A400024F008C025F025EC20F01EC0D8F01FC0FF
:101A5000D9F020C0DAF021C0DBF0EAC005F0EBC01D
:101A600006F0ECC007F0EDC008F0000E096E000EA5
:101A70000A6E200E0B6E410E0C6EEDEC12F005C0DE
:101A8000EAF006C0EBF007C0ECF008C0EDF0000192
:101A9000C607D8A0C707E04BE12BC851E05DE15174
:101AA000800A396EC951800A3958D8B05AEF0DF002
:101AB0005CEF0DF06AEF0DF0E9BF68EF0DF0E95152
:101AC00009E14B0EE85DD8A068EF0DF06AEF0DF06C
:101AD00060EF0CF0C451C511D8A471EF0DF073EF95
:101AE0000DF084EF0DF0B1A978EF0DF07AEF0DF065
:101AF00084EF0DF0000EE825D96E010EE921DA6EB3
:101B00002E0EDF6EE84BE92B000EE825D96E010E94
:101B1000E921DA6E000EDF6E650ED619D8A493EFB8
:101B20000DF095EF0DF065EF0EF0000EE16F4F0E2A
:101B3000E06F000EE025D96E010EE121DA6E000E95
:101B4000DF6E000ED16F000ED06FE7BFACEF0DF06F
:101B5000AAEF0DF0B4EF0DF0000ED16F010ED06FB3
:101B6000E66DE71FD8B0E72B000ED36F020ED26FE1
:101B7000E5EF0DF0E007D8A0E107000EE025D96EF3
:101B8000010EE121DA6EE6C005F0E7C006F0000EB6
:101B9000086E0A0E076ED3EC1BF00550300FDF6E97
:101BA000E6C005F0E7C006F0000E086E0A0E076EEC
:101BB000B0EC1AF005C0E6F006C0E7F00001D2076D
:101BC000D8A0D307D407D8A0D507E651E711D8A4E9
:101BD000ECEF0DF0EEEF0DF0BAEF0DF0D3BFFBEF31
:101BE0000DF0D35106E1D205D8B0F9EF0DF0FBEFBF
:101BF0000DF0BAEF0DF0E007D8A0E107D051D111F8
:101C0000D8A405EF0EF007EF0EF00DEF0EF0000E6A
:101C1000BD6F2B0EBC6F11EF0EF0000EBD6F2D0EC1
:101C2000BC6F000EE025D96E010EE121DA6EBCC05A
:101C3000DFFFD407D8A0D507E007D8A0E107BF0E83
:101C4000396EFF0E3A6E38503B6E3C6A39503B2677
:101C50003A503C223C500AE11A0E3B5CD8A033EFCC
:101C60000EF036EF0EF0010E37EF0EF0000EC06FE3
:101C7000C16BC051C111D8A440EF0EF042EF0EF07D
:101C800048EF0EF0000EBF6F650EBE6F4CEF0EF00A
:101C9000000EBF6F450EBE6F000EE025D96E010E1F
:101CA000E121DA6EBEC0DFFFD407D8A0D507000E51
:101CB000E825056E010EE921066E000EE025076E8F
:101CC000010EE121086ECAEC1FF032C017F033C0DC
:101CD00018F0000E196E010E1A6ED4C01BF0D5C09C
:101CE0001CF04DEC1AF017C032F018C033F012009F
:101CF0000850800B116E08500824136E07AE83EF56
:101D00000EF085EF0EF086EF0EF013801350D8B46E
:101D10008CEF0EF08EEF0EF0A3EF0EF01328D8A488
:101D200094EF0EF096EF0EF09EEF0EF0000E056EA3
:101D3000000E066E000E076E000E086E078E000E77
:101D4000086EABEF0EF0000E056E000E066E000E74
:101D5000076E000E086E0C50800B126E1150121898
:101D6000D8B4B5EF0EF0B7EF0EF0B8EF0EF0118C5F
:101D70000C500C24126E0BAEC0EF0EF0C2EF0EF042
:101D8000C3EF0EF012801250D8B4C9EF0EF0CBEFB3
:101D90000EF0E0EF0EF01228D8A4D1EF0EF0D3EF42
:101DA0000EF0DBEF0EF0000E096E000E0A6E000E54
:101DB0000B6E000E0C6E0B8E000E0C6EE8EF0EF02C
:101DC000000E096E000E0A6E000E0B6E000E0C6EF9
:101DD0001350125CD8B0EFEF0EF0F1EF0EF018EFE9
:101DE0000FF011ACF6EF0EF0F8EF0EF0FAEF0EF088
:101DF000800E111A13C014F012C013F014C012F0A8
:101E000005C014F009C005F014C009F006C014F0B4
:101E10000AC006F014C00AF007C014F00BC007F0A7
:101E200014C00BF008C014F00CC008F014C00CF083
:101E3000000E146E135012C00DF00E6A0D5E000EEF
:101E40000E5A0EBE2DEF0FF00E5009E11A0E0D5C6A
:101E5000D8A02DEF0FF02FEF0FF066EF0FF0055029
:101E6000061007100810D8A438EF0FF03BEF0FF062
:101E7000010E3CEF0FF0000E146E000E056E000E0A
:101E8000066E000E076E000E086E12C013F06FEFA4
:101E90000FF014A04EEF0FF050EF0FF056EF0FF0D1
:101EA000D89014300109146E58EF0FF0D890143206
:101EB00005A05DEF0FF05FEF0FF060EF0FF0148EF5
:101EC00008340832073206320532132A1250135CE6
:101ED000D8A06DEF0FF06FEF0FF049EF0FF011BCCE
:101EE00074EF0FF076EF0FF0B6EF0FF01350D8A4A9
:101EF0007CEF0FF07EEF0FF088EF0FF0000E056E15
:101F0000000E066E000E076E000E086ED7EF10F082
:101F1000095005260A5006220B5007220C500822B1
:101F200008A095EF0FF097EF0FF043EF10F014A01B
:101F30009CEF0FF09EEF0FF0A4EF0FF0D89014304D
:101F40000109146EA6EF0FF0D890143205A0ABEF84
:101F50000FF0ADEF0FF0AEEF0FF0148E0834083233
:101F6000073206320532132A43EF10F00950055CA0
:101F70000A5006580B5007580850800A0D6E0C5036
:101F8000800A0D58D8B0C7EF0FF0C9EF0FF0F4EF8B
:101F90000FF00550095C0D6E06500A580E6E075082
:101FA0000B580F6E08500C58106EFF0E0D24056E66
:101FB000FF0E0E20066EFF0E0F20076EFF0E102084
:101FC000086E800E111A146C1450D8A4EAEF0FF0AA
:101FD000ECEF0FF0FCEF0FF0010E0526000E0622CD
:101FE00007220822FCEF0FF00950055E0A50065A3E
:101FF0000B50075A0C50085A0550061007100810CD
:10200000D8A405EF10F007EF10F03CEF10F01450DB
:10201000D8A40DEF10F00FEF10F03CEF10F0000E11
:10202000056E000E066E000E076E000E086ED7EFEE
:1020300010F0D890053606360736083614AE23EF72
:1020400010F025EF10F026EF10F0058014A02BEF14
:1020500010F02DEF10F031EF10F0D880143633EF80
:1020600010F0D89014361350D8B439EF10F03BEF7D
:1020700010F03CEF10F0130607AE41EF10F043EF05
:1020800010F019EF10F0000E126E14AE4AEF10F0BF
:102090004CEF10F064EF10F014C00DF07F0E0D1631
:1020A000D8B455EF10F057EF10F05BEF10F0010EC1
:1020B000126E64EF10F005A060EF10F062EF10F008
:1020C00064EF10F057EF10F01250D8B46AEF10F030
:1020D0006CEF10F097EF10F0010E0526000E0622AF
:1020E0000722082208A077EF10F079EF10F097EFA1
:1020F00010F005C00DF006C00EF007C00FF008C0CC
:1021000010F0103410320F320E320D320DC005F0C7
:102110000EC006F00FC007F010C008F01328D8B4A6
:1021200094EF10F096EF10F097EF10F0132A1328A9
:10213000D8B49DEF10F09FEF10F0A7EF10F0135000
:10214000D8A4A5EF10F0A7EF10F0B9EF10F0000E33
:10215000056E000E066E000E076E000E086E135020
:10216000D8A4B5EF10F0B7EF10F0B9EF10F0000EF3
:10217000116E13A0BEEF10F0C0EF10F0C3EF10F01F
:10218000078EC4EF10F0079ED8901330086E11AE82
:10219000CCEF10F0CEEF10F0CFEF10F0088E05C0AE
:1021A00005F006C006F007C007F008C008F01200EE
:1021B0000850800B116E08500824176E07AEE3EF2D
:1021C00010F0E5EF10F0E6EF10F017801750D8B4DC
:1021D000ECEF10F0EEEF10F001EF11F01728D8A49B
:1021E000F4EF10F0F6EF10F0FEEF10F0000E056EB9
:1021F000000E066E000E076E000E086E078E09EFC9
:1022000011F0000E056E000E066E000E076E000E39
:10221000086E0C50800B111A0C500C24126E0BAE71
:1022200014EF11F016EF11F017EF11F012801250A9
:10223000D8B41DEF11F01FEF11F032EF11F012289A
:10224000D8A425EF11F027EF11F02FEF11F0000EB9
:10225000096E000E0A6E000E0B6E000E0C6E0B8ED9
:102260003AEF11F0000E096E000E0A6E000E0B6EB2
:10227000000E0C6E1250D8B440EF11F042EF11F086
:102280004AEF11F01750D8A448EF11F04AEF11F0BF
:1022900054EF11F0000E056E000E066E000E076E74
:1022A000000E086EECEF12F00B500502F3CF1CF09D
:1022B000F4CF1DF01C50136E146A156A166A1D5077
:1022C000186E196A1A6A1B6A0A500602F3CF1CF0CC
:1022D000F4CF1DF01C501326000E142215221622D6
:1022E0001D501826000E19221A221B22095007021F
:1022F000F3CF1CF0F4CF1DF01C501326000E142257
:10230000152216221D501826000E19221A221B22F1
:1023100015C016F014C015F013C014F0136A09505C
:102320000602F3CF1CF0F4CF1DF01C5013261D50F5
:102330001422000E1522000E16220A500502F3CFB9
:102340001CF0F4CF1DF01C5013261D501422000E5B
:102350001522000E162215C016F014C015F013C079
:1023600014F0136A09500502F3CF1CF0F4CF1DF0EE
:102370001C5013261D501422000E1522000E16228A
:102380000B500602F3CF1CF0F4CF1DF01C501826A2
:102390001D501922000E1A22000E1B220A5007029D
:1023A000F3CF1CF0F4CF1DF01C5018261D5019223D
:1023B000000E1A22000E1B220B500702F3CF1CF056
:1023C000F4CF1DF01C500D6E1D500E6E0F6A106A7A
:1023D0000FC010F00EC00FF00DC00EF00D6A0D50C2
:1023E00018260E5019220F501A2210501B2213C00B
:1023F0000DF014C00EF015C00FF016C010F0190E3D
:1024000007EF12F0D89010320F320E320D32E82E54
:1024100002EF12F00D5018260E5019220F501A22FA
:1024200010501B2215C016F014C015F013C014F084
:10243000136A125017C00DF00E6A0D26000E0E2200
:10244000820E0D241C6EFF0E0E201D6E3DEF12F04D
:10245000D890183619361A361B3616AE32EF12F0EF
:1024600034EF12F035EF12F01880D890133614368E
:10247000153616361C06D8A01D061AAE42EF12F00D
:1024800044EF12F028EF12F0000E126E16AE4BEF72
:1024900012F04DEF12F071EF12F0FF0E13140D6EEB
:1024A000FF0E14140E6EFF0E15140F6E7F0E161411
:1024B000106E0D500E100F101010D8B462EF12F005
:1024C00064EF12F068EF12F0010E126E71EF12F06D
:1024D00018A06DEF12F06FEF12F071EF12F064EFD1
:1024E00012F01250D8B477EF12F079EF12F09DEF9E
:1024F00012F0010E1826000E19221A221B221BA010
:1025000084EF12F086EF12F09DEF12F018C00DF07C
:1025100019C00EF01AC00FF01BC010F010341032AA
:102520000F320E320D320DC018F00EC019F00FC070
:102530001AF010C01BF01C4A1D2A1DBEA8EF12F095
:102540001D5008E11C28D8A0A8EF12F0AAEF12F045
:10255000B4EF12F0000E186E000E196E800E1A6E97
:102560007F0E1B6EE2EF12F01DBEC1EF12F01D5088
:1025700006E11C04D8B0BFEF12F0C1EF12F0CDEFAE
:1025800012F0000E186E000E196E000E1A6E000E7C
:102590001B6E000E116EE2EF12F01CC017F0FF0E62
:1025A0001816FF0E19167F0E1A16000E1B1617A00E
:1025B000DCEF12F0DEEF12F0DFEF12F01A8ED8909F
:1025C00017301B6E11501B1218C005F019C006F011
:1025D0001AC007F01BC008F012000850800B156EDF
:1025E000085008241C6E07AEF8EF12F0FAEF12F054
:1025F000FBEF12F01C801C50D8B401EF13F003EF76
:1026000013F018EF13F01C28D8A409EF13F00BEF08
:1026100013F013EF13F0000E056E000E066E000EA1
:10262000076E000E086E078E000E086E20EF13F086
:10263000000E056E000E066E000E076E000E086E90
:102640000C50800B151A0C500C241D6E0BAE2BEF8A
:1026500013F02DEF13F02EEF13F01D801D50D8B4A2
:1026600034EF13F036EF13F04BEF13F01D28D8A41E
:102670003CEF13F03EEF13F046EF13F0000E096E3F
:10268000000E0A6E000E0B6E000E0C6E0B8E000E0E
:102690000C6E53EF13F0000E096E000E0A6E000E62
:1026A0000B6E000E0C6E09500A100B100C10D8A403
:1026B0005CEF13F05EEF13F076EF13F0000E056E93
:1026C000000E066E000E076E000E086E800E0712DA
:1026D0007F0E08121550081205C005F006C006F05E
:1026E00007C007F008C008F0B9EF14F01C50D8A4D8
:1026F0007CEF13F07EEF13F088EF13F0000E056E01
:10270000000E066E000E076E000E086EB9EF14F094
:102710001D501CC00DF00E6A0D5E000E0E5A7F0E8D
:102720000D24166E000E0E20176E05C011F006C0A7
:1027300012F007C013F008C014F0000E056E000E72
:10274000066E000E076E000E086E000E186E000E6C
:10275000196E000E1A6E000E1B6E000E1D6EE9EF54
:1027600013F01D50D8B4B7EF13F0B9EF13F0D0EF5A
:1027700013F0D8901136123613361436D890053629
:102780000636073608361BAEC8EF13F0CAEF13F053
:10279000CBEF13F00580D890183619361A361B3651
:1027A0000950115C0A5012580B5013580C50145811
:1027B000D8A0DDEF13F0DFEF13F0E8EF13F01B8C80
:1027C0000950115E0A50125A0B50135A0C50145AE9
:1027D0001D2A190E1D64EFEF13F0F1EF13F0B1EFA6
:1027E00013F01150121013101410D8B4FAEF13F0A4
:1027F000FCEF13F014EF14F0188014EF14F0D890DD
:1028000005360636073608361BAE09EF14F00BEF17
:1028100014F00CEF14F00580D890183619361A36DB
:102820001B361606D8A0170607AE19EF14F01BEFDB
:1028300014F0FFEF13F0000E1D6E1BAE22EF14F02C
:1028400024EF14F048EF14F0FF0E18140D6EFF0E75
:1028500019140E6EFF0E1A140F6E7F0E1B14106EDD
:102860000D500E100F101010D8B439EF14F03BEFCC
:1028700014F03FEF14F0010E1D6E48EF14F005A0A8
:1028800044EF14F046EF14F048EF14F03BEF14F06F
:102890001D50D8B44EEF14F050EF14F074EF14F054
:1028A000010E0526000E06220722082208A05BEF73
:1028B00014F05DEF14F074EF14F005C00DF006C0D5
:1028C0000EF007C00FF008C010F0103410320F32B5
:1028D0000E320D320DC005F00EC006F00FC007F02D
:1028E00010C008F0164A172A17BE7FEF14F01750D1
:1028F00008E11628D8A07FEF14F081EF14F08CEFD8
:1029000014F0000E176E1668000E056E000E066EAF
:10291000000E076E000E086E17BE99EF14F01750E8
:1029200006E11604D8B097EF14F099EF14F0A7EF72
:1029300014F0000E176E000E166E000E056E000EDF
:10294000066E000E076E000E086E000E156E16C0A5
:102950001CF01CA0AEEF14F0B0EF14F0B3EF14F0C5
:10296000078EB4EF14F0079ED8901C30086E6AEF03
:1029700013F0120040C0D9FF41C0DAFFDECFF6FFEE
:10298000DDCFF7FFF86A0800F550250AD8A4CBEF91
:1029900014F0CDEF14F05BEF16F040C0D9FF41C04A
:1029A000DAFFDE2A000EDD22000E0001AE6F000EFF
:1029B000AD6FADC0B1F0AEC0B2F0AF69B06940C0AC
:1029C000D9FF41C0DAFFDECFF6FFDDCFF7FFF86AAF
:1029D0000800F5500B6E0C6A9AEC1FF00B504E6E0F
:1029E0004E50D8B4F6EF14F0F8EF14F032EF15F0C3
:1029F00040C0D9FF41C0DAFFDECF44F0DDCF45F063
:102A0000010E4426000E452244C0F6FF45C0F7FFE4
:102A1000F86A0800F5500B6E0C6A9AEC1FF00B5028
:102A20004F6E4F50D8B417EF15F019EF15F032EF85
:102A300015F040C0D9FF41C0DAFFDECF44F0DDCF52
:102A400045F0020E4426000E452244C0F6FF45C064
:102A5000F7FFF86A0800F5500B6E0C6A9AEC1FF04D
:102A60000B50506E660E4E18D8A439EF15F03BEFA0
:102A700015F07CEF15F040C0D9FF41C0DAFFDECF82
:102A8000F6FFDDCFF7FFF86A0800F5CF51F040C040
:102A9000D9FF41C0DAFFDE2A000EDD2242C0D9FF95
:102AA00043C0DAFFDFCF44F0040EDE26DFCF45F06F
:102AB000000EDD2244C0D9FF45C0DAFFDECF4AF068
:102AC000DECF4BF0DECF4CF0DECF4DF03EC032F02B
:102AD0003FC033F04AC034F04BC035F04CC036F044
:102AE0004DC037F051C038F025EC08F032C03EF050
:102AF00033C03FF077EF16F04E0E056E000E066EF7
:102B0000460E076E100E086E000E0A6E020E096E5B
:102B1000DFEC19F005500610D8A491EF15F093EFF3
:102B200015F024EF16F040C0D9FF41C0DAFFDECF28
:102B300044F0DDCF45F0010E4426000E452244C08E
:102B4000F6FF45C0F7FFF86A0800F5CF51F0BF0E59
:102B5000446EFF0E456E40C0D9FF41C0DAFFDECFA4
:102B6000F6FFDDCFF7FFF86A0800F550466E476ABA
:102B7000445046264550472247500AE11A0E465C0B
:102B8000D8A0C5EF15F0C8EF15F0010EC9EF15F08C
:102B9000000E486E496A48504910D8B4D2EF15F07B
:102BA000D4EF15F0EEEF15F042C0D9FF43C0DAFFC5
:102BB000DFCF44F0040EDE26DFCF45F0000EDD222D
:102BC00044C0D9FF45C0DAFFDECF4AF0DECF4BF07C
:102BD000DECF4CF0DECF4DF006EF16F042C0D9FF4D
:102BE00043C0DAFFDFCF44F0040EDE26DFCF45F02E
:102BF000000EDD2244C0D9FF45C0DAFFDECF4AF027
:102C0000DECF4BF0DECF4CF0DECF4DF0020E40C0F9
:102C1000D9FF41C0DAFFDE26000EDD223EC032F0D1
:102C20003FC033F04AC034F04BC035F04CC036F0F2
:102C30004DC037F051C038F025EC08F032C03EF0FE
:102C400033C03FF077EF16F040C0D9FF41C0DAFF44
:102C5000DECFF6FFDDCFF7FFF86A0800F550250A52
:102C6000D8A435EF16F037EF16F04EEF16F040C04F
:102C7000D9FF41C0DAFFDE2A000EDD22000E086E09
:102C8000250E076E3EC009F03FC00AF0D3EC1CF0E1
:102C9000000E3F6E010E3E6E77EF16F040C0D9FF7A
:102CA00041C0DAFFDE2A000EDD22000E3F6E000E6C
:102CB0003E6E77EF16F040C0D9FF41C0DAFFDECF9D
:102CC000F6FFDDCFF7FFF86A0800F550076E086AD7
:102CD0003EC009F03FC00AF0D3EC1CF040C0D9FF61
:102CE00041C0DAFFDE2A000EDD2248EF16F01200A6
:102CF0009CC02EF09DC02FF09EC030F09FC031F0E0
:102D00001EC02EF01FC02FF020C030F021C031F0C7
:102D1000810E226EFF0E236E2EC024F02FC025F0F0
:102D200030C026F031C027F0180E9CEF16F0D89076
:102D30002732263225322432E82E97EF16F024501F
:102D400022242C6E000E23202D6E2DBEB1EF16F026
:102D50002D5009E1170E2C5CD8A0B1EF16F0B3EF9F
:102D600016F0BDEF16F01EC01EF01FC01FF020C0F1
:102D700020F021C021F080EF17F02DBEC2EF16F039
:102D8000C4EF16F034EF17F02CC022F0FF0E236EC4
:102D9000FF0E246E7F0E256E000E266E2266D3EF88
:102DA00016F0DBEF16F02634263225322432233299
:102DB000222ECEEF16F023C028F024C029F025C023
:102DC0002AF026C02BF028502E14226E29502F14E2
:102DD000236E2A503014246E2B503114256E22504D
:102DE000231024102510D8A4F8EF16F0FAEF16F0EF
:102DF000FCEF16F0B3EF16F02EC022F02FC023F038
:102E000030C024F031C025F0200E0CEF17F0D89020
:102E10002532243223322232E82E07EF17F02250D7
:102E2000231024102510D8B418EF17F01AEF17F05C
:102E300022EF17F028502E2629502F222A50302218
:102E40002B503122281C226E291C236E2A1C246E32
:102E50002B1C256E22502E1623502F162450301670
:102E60002550311678EF17F02EC022F02FC023F036
:102E700030C024F031C025F0200E44EF17F0D89078
:102E80002532243223322232E82E3FEF17F022502F
:102E9000231024102510D8A450EF17F052EF17F08C
:102EA0005CEF17F0000E2E6E000E2F6E000E306ECF
:102EB000000E316E78EF17F0D8902E34226E2F343A
:102EC000236E3034246E3134256E225023102410AA
:102ED0002510D8B46EEF17F070EF17F078EF17F0F9
:102EE000000E2E6E000E2F6E800E306EBF0E316EF5
:102EF0002EC01EF02FC01FF030C020F031C021F0D6
:102F000012000D6E0D50D8B488EF17F08AEF17F04D
:102F1000ACEF17F008BE91EF17F08FEF17F0ACEFA2
:102F200017F005C009F006C00AF007C00BF008C092
:102F30000CF0091E0A1E0B1E0C1E092A000E0A2286
:102F40000B220C2209C00FF00AC010F00BC011F0C8
:102F50000CC012F0B4EF17F005C00FF006C010F06F
:102F600007C011F008C012F0055006100710081035
:102F7000D8A4BDEF17F0BFEF17F0C9EF17F0000EA0
:102F8000056E000E066E000E076E000E086E5AEFFC
:102F900018F0960E0E6ED3EF17F00E2AD89012325C
:102FA000113210320F32000E0F14096E000E101481
:102FB0000A6E000E11140B6EFE0E12140C6E0950E8
:102FC0000A100B100C10D8A4E8EF17F0EAEF17F076
:102FD000CDEF17F0F8EF17F00E2A010E0F26000EB6
:102FE000102211221222D8901232113210320F32D6
:102FF000000E0F14096E000E10140A6E000E11144C
:103000000B6EFF0E12140C6E09500A100B100C10F0
:10301000D8A40DEF18F00FEF18F0ECEF17F017EF42
:1030200018F00E06D8900F3610361136123611BE33
:103030001CEF18F01EEF18F026EF18F0020E0E60CD
:1030400024EF18F026EF18F011EF18F00EB02BEF68
:1030500018F02DEF18F02EEF18F0119ED8900E32C8
:103060000EC009F00A6A0B6A0C6A09C00CF00B6A00
:103070000A6A096A09500F120A5010120B501112F5
:103080000C5012120D50D8B448EF18F04AEF18F057
:1030900052EF18F008BE51EF18F04FEF18F052EF52
:1030A00018F0128E0FC005F010C006F011C007F026
:1030B00012C008F01200073408340E6E0E50D8A467
:1030C00064EF18F066EF18F070EF18F0000E056E60
:1030D000000E066E000E076E000E086EDDEF18F093
:1030E00005C009F006C00AF007C00BF008C00CF0DC
:1030F000200E80EF18F0D8900C320B320A320932D1
:10310000E82E7BEF18F009500D6E078EFF0E0516A6
:10311000FF0E0616FF0E0716000E0816960E0E5E20
:103120000EBE97EF18F095EF18F0ADEF18F00E50B7
:10313000800A970FD8B09FEF18F0A1EF18F0A3EF17
:1031400018F066EF18F0D8900832073206320532D0
:103150000E3EA3EF18F0C5EF18F01F0E0E64B3EF8C
:1031600018F0B5EF18F0BDEF18F066EF18F0D89032
:1031700005360636073608360E060E50D8A4C3EFBD
:1031800018F0C5EF18F0B7EF18F00D50D8B4CBEF2A
:1031900018F0CDEF18F0D5EF18F0081E071E061E28
:1031A000056C000E06220722082205C005F006C0A5
:1031B00006F007C007F008C008F01200000E1E1449
:1031C000266E000E1F14276E800E2014286E7F0EB0
:1031D0002114296E2650271028102910D8A4F3EFA7
:1031E00018F0F5EF18F0FDEF18F0000E1E6E000E4F
:1031F0001F6E000E206E000E216E000E2214266E31
:10320000000E2314276E800E2414286E7F0E2514C2
:10321000296E2650271028102910D8A412EF19F073
:1032200014EF19F01CEF19F0000E226E000E236E41
:10323000000E246E000E256E21AE21EF19F023EF53
:1032400019F02CEF19F01E6C1F1ED8B01F2A201E7B
:10325000D8B0202A800E215625AE31EF19F033EF79
:1032600019F03CEF19F0226C231ED8B0232A241E3B
:10327000D8B0242A800E2556000E1E1A000E1F1AE2
:10328000000E201A800E211A000E221A000E231A98
:10329000000E241A800E251A22501E5C23501F583F
:1032A0002450205825502158D8B059EF19F05BEF21
:1032B00019F05EEF19F0D8905FEF19F0D880120086
:1032C000A0C00FF0A1C010F0A2C011F0A3C012F076
:1032D00005C00FF006C010F007C011F008C012F0D2
:1032E0000FC009F010C00AF011C00BF012C00CF0B2
:1032F000180E80EF19F0D8900C320B320A320932D6
:10330000E82E7BEF19F009500D6E0E6A0D500E106D
:10331000D8A48DEF19F08FEF19F0AFEF19F0D89016
:103320000F34096E10340A6E11340B6E12340C6EA9
:1033300009500A100B100C10D8A4A1EF19F0A3EF3C
:1033400019F0A9EF19F0000E066E020E056EDEEF01
:1033500019F0000E066E030E056EDEEF19F00D2853
:103360000E10D8A4B6EF19F0B8EF19F0DAEF19F093
:103370000FC009F010C00AF011C00BF012C00CF021
:10338000090ED89009360A360B360C36E82EC1EFF6
:1033900019F009500A100B100C10D8B4D2EF19F024
:1033A000D5EF19F0010ED6EF19F0000E056E066A82
:1033B000DEEF19F0000E066E040E056E120005C059
:1033C0000CF006C00DF007C00EF008C00FF00906A3
:1033D000D8A00A06092806E10A28D8A4F2EF19F0B5
:1033E000F4EF19F001EF1AF0000E066E000E056EF4
:1033F0004CEF1AF00C4A0D2A0E4A0F2A0906D8A0E3
:103400000A060CC0D9FF0DC0DAFFDF50D8B40BEFAD
:103410001AF00DEF1AF03AEF1AF00EC0F6FF0FC0D7
:10342000F7FFF86A0800F5500009D8B41AEF1AF04F
:103430001CEF1AF03AEF1AF009500A10D8B423EF33
:103440001AF025EF1AF03AEF1AF00CC0D9FF0DC0B0
:10345000DAFFDF500B6E0EC0F6FF0FC0F7FFF86A01
:103460000800F5500B18D8B438EF1AF03AEF1AF0FC
:10347000FAEF19F00CC0D9FF0DC0DAFFDF500B6E68
:103480000EC0F6FF0FC0F7FFF86A0800F5500B5C9E
:10349000056E066AD8A0060612000001B1A153EF1E
:1034A0001AF055EF1AF05FEF1AF019C010F01AC0B9
:1034B00011F017C012F018C013F06BEC20F01CBE16
:1034C00064EF1AF066EF1AF06CEF1AF01BC020F0F0
:1034D0001CC021F070EF1AF0000E216E000E206E5D
:1034E000000E1F6E000E1E6E82EF1AF0000E086EA8
:1034F000200E076E17C009F018C00AF0D3EC1CF0BC
:103500001E4A1F2A20501E5C1F50800A1D6E21502B
:10351000800A1D58D8A08FEF1AF091EF1AF076EFBD
:103520001AF00001B1B197EF1AF099EF1AF0A3EF7A
:103530001AF019C010F01AC011F017C012F018C01C
:1035400013F06BEC20F019C005F01AC006F028EC5F
:1035500021F020500524176E21500620186E12000D
:10356000000E0A6E08BEB9EF1AF0B7EF1AF0BFEFFF
:103570001AF0076C081ED8B0082A010E0A6E06BEA3
:10358000C6EF1AF0C4EF1AF0CCEF1AF0056C061E65
:10359000D8B0062A010E0A1A000E0C6E000E0B6E31
:1035A00007500810D8B4D7EF1AF0D9EF1AF001EF8E
:1035B0001BF0010E096EE1EF1AF0D89007360836BD
:1035C000092A08AEE6EF1AF0E8EF1AF0DDEF1AF07C
:1035D000D8900B360C360750055C08500658D8A01A
:1035E000F4EF1AF0F6EF1AF0FBEF1AF00750055E51
:1035F0000850065A0B80D89008320732092EE8EF9F
:103600001AF00A50D8B407EF1BF009EF1BF00DEFCA
:103610001BF00B6C0C1ED8B00C2A0BC005F00CC0B4
:1036200006F0120078EC22F00009D8B41AEF1BF073
:103630001CEF1BF057EF1BF02AEF1BF0F5EC22F00C
:1036400073EF1BF0F1EC22F073EF1BF0E9EC22F0CA
:1036500073EF1BF072C00EF073C00FF002D83BEF97
:103660001BF00500FA6E00016651FD6E6751FE6E9B
:10367000FF6AFA501200106E116A1150000AD8B495
:1036800044EF1BF026EF1BF01050010AD8B426EFD0
:103690001BF0030AD8B41EEF1BF0010AD8B422EFC6
:1036A0001BF0070AD8B426EF1BF026EF1BF0000131
:1036B00083917DC0D9FF7EC0DAFF7D4B7E2BDF502A
:1036C000F9EC22F000017F07D8A080077F5180111C
:1036D000D8A46DEF1BF06FEF1BF072EF1BF0060E1E
:1036E00073EF1BF0030E1200840E5824D96EDA6AB1
:1036F000000EDA22000EDF6EABA481EF1BF083EF29
:103700001BF097EF1BF0840E5824D96EDA6A000E76
:10371000DA220001DF8202D897EF1BF00500FA6E73
:10372000F651FD6EF751FE6EFF6AFA501200ABA221
:103730009CEF1BF09EEF1BF0B3EF1BF0840E5824A0
:10374000D96EDA6A000EDA220001DF8402D8B3EF04
:103750001BF00500FA6E01015851FD6E5951FE6EC5
:10376000FF6AFA501200840E5824D96EDA6A000EED
:10377000DA22DF50D8B4BFEF1BF0C1EF1BF0D0EF5F
:103780001BF002D8CEEF1BF00500FA6E0101565176
:10379000FD6E5751FE6EFF6AFA501200D2EF1BF019
:1037A000FAEC21F01200000E0A6E06BEDCEF1BF0F0
:1037B000DAEF1BF0E2EF1BF0056C061ED8B0062A0C
:1037C000010E0A6E08BEE9EF1BF0E7EF1BF0EDEF0C
:1037D0001BF0076C081ED8B0082A07500810D8B490
:1037E000F4EF1BF0F6EF1BF01AEF1CF0010E096E60
:1037F000FEEF1BF0D89007360836092A08AE03EF13
:103800001CF005EF1CF0FAEF1BF00750055C0850A8
:103810000658D8A00EEF1CF010EF1CF014EF1CF0AF
:103820000750055E0850065AD89008320732092E14
:1038300005EF1CF00A50D8B420EF1CF022EF1CF06A
:1038400026EF1CF0056C061ED8B0062A05C005F050
:1038500006C006F01200000E05140D6E000E0614D0
:103860000E6E800E07140F6E7F0E0814106E0D5032
:103870000E100F101010D8A440EF1CF042EF1CF0F7
:103880004AEF1CF0000E056E000E066E000E076E6D
:10389000000E086E000E09140D6E000E0A140E6E56
:1038A000800E0B140F6E7F0E0C14106E0D500E1048
:1038B0000F101010D8A45FEF1CF061EF1CF069EF3F
:1038C0001CF0000E096E000E0A6E000E0B6E000E4C
:1038D0000C6E095005180FE10A5006180CE10B5048
:1038E000071809E10C500818D8B479EF1CF07BEFE9
:1038F0001CF07EEF1CF0D8907FEF1CF0D8801200F7
:103900000BEC23F07DC0D9FF7EC0DAFFDF6E000133
:103910007D4B7E2B7F07D8A080077F518011D8B4C4
:1039200094EF1CF096EF1CF09BEF1CF0FDEC22F0E6
:10393000050ED2EF1CF08387A6EF1CF0DDEC22F021
:10394000D2EF1CF0E1EC22F0D2EF1CF06CC00EF0D4
:103950006DC00FF002D8B6EF1CF00500FA6E605192
:10396000FD6E6151FE6EFF6AFA501200106E116A10
:103970001150000AD8B4BFEF1CF0A2EF1CF0105099
:10398000010AD8B4A2EF1CF0030AD8B49EEF1CF0D1
:10399000010AD8B49EEF1CF0070AD8B4A2EF1CF0BD
:1039A000A2EF1CF0120009500A10D8B4DAEF1CF094
:1039B000DCEF1CF0E5EF1CF009500A10D8A4E3EF8F
:1039C0001CF0E5EF1CF0EAEF1CF00750B6EC22F01B
:1039D0001DEF1DF020EE04F00950D9260A50DA221E
:1039E000DE50DE10D8B4F7EF1CF0F9EF1CF014EF46
:1039F0001DF020EE04F00950D9260A50DA2210EE0C
:103A000002F00950E1260A50E222DE50E65CE65060
:103A1000800A0F6EDE50800A0F58D8B012EF1DF0EA
:103A200014EF1DF01DEF1DF020EE02F00950D92615
:103A30000A50DA22DE2A000EDD221200056E010E87
:103A4000066E000183B527EF1DF029EF1DF063EF2F
:103A50001DF005C07CF08393838583910E0E816FEA
:103A6000010E7B6FF40E7A6F8387220E606F460E15
:103A7000616F000E6C6F000E6D6F220E626F460E4E
:103A8000636F000E6E6F000E6F6F220E646F460E36
:103A9000656F000E706F000E716F220E666F460E1E
:103AA000676F000E726F000E736F1E0E686F460E0A
:103AB000696F000E746F000E756F1DEC23F035EC0E
:103AC00022F0000E066E065012001B6E000E1D6ED8
:103AD000000E1C6E1B501EEC1DF00009D8B473EFD5
:103AE0001DF075EF1DF06AEF1DF0440E0A6E430ED7
:103AF0000B6E1C0E0C6E000E0D6E61EC22F0160E9D
:103B0000056E000E066E000E086E010E076E23ECA9
:103B100022F0000E0A6E000E0B6E000E0C6E000EF0
:103B20000D6E55EC22F0D9EC22F0E4EC21F0E80621
:103B3000D8B49DEF1DF09FEF1DF095EF1DF01DC057
:103B400018F01C50196E1850166E19C017F012009C
:103B500000018387B9EF1DF0EDEC22F0E5EF1DF0D9
:103B600009EC23F0030EE5EF1DF0E9EC22F0E5EFA0
:103B70001DF06CC00EF06DC00FF002D8C9EF1DF043
:103B80000500FA6E6051FD6E6151FE6EFF6AFA50DB
:103B90001200106E116A1150000AD8B4D2EF1DF055
:103BA000B5EF1DF01050010AD8B4B5EF1DF0030AAF
:103BB000D8B4ACEF1DF0010AD8B4ACEF1DF0070A81
:103BC000D8B4B0EF1DF0B5EF1DF01200096E05502E
:103BD0000610D8B4EEEF1DF0F0EF1DF00AEF1EF066
:103BE0000950020D600EF324D96E000EF420DA6E37
:103BF00005C0DEFF06C0DDFF0950020D6C0EF32488
:103C0000D96E000EF420DA6E07C0DEFF08C0DDFFBB
:103C100022EF1EF00950020D600EF324D96E000E43
:103C2000F420DA6E220EDE6E460EDD6E0950020DB5
:103C30006C0EF324D96E000EF420DA6E000EDE6EE8
:103C4000000EDD6E12009D9AE80E056E360E066EB1
:103C5000C5EC22F09D985E0E056E410E066EC0EC1E
:103C600022F0080EB86E900EAB6E240EAC6ECF0E26
:103C7000AF6E000EB06E420E056E460E066ECFECB5
:103C800022F0060E056E460E066ECAEC22F00C0EF1
:103C9000056E460E066ED4EC22F0000E0001B56FE4
:103CA000000E5A6E000E596E080EFC6F000E586E14
:103CB000000E576E000E566E9D8A12001DEC23F00A
:103CC000000183A166EF1EF068EF1EF075EF1EF095
:103CD00078EC22F00009D8B470EF1EF072EF1EF0FD
:103CE00075EF1EF00F0E0001816F00018151020D72
:103CF000010EF324F66E100EF420F76EF86A000E33
:103D0000F8220900F5CF12F00900F5CF13F002D820
:103D100093EF1EF00500FA6E1250FD6E1350FE6E0A
:103D2000FF6AFA5012000001816F1200196E1950DB
:103D30001EEC1DF00009D8B4A0EF1EF0A2EF1EF09B
:103D400097EF1EF09C0E0A6E430E0B6E170E0C6E54
:103D5000000E0D6E61EC22F0160E056E000E066E62
:103D6000000E086E010E076E23EC22F0000E0A6EA4
:103D7000000E0B6E000E0C6E000E0D6E55EC22F058
:103D8000D9EC22F0E4EC21F0E806D8B4CAEF1EF03A
:103D9000CCEF1EF0C2EF1EF01200186E18501EEC91
:103DA0001DF00009D8B4D7EF1EF0D9EF1EF0CEEF0A
:103DB0001EF0180E0A6E430E0B6E170E0C6E000EE0
:103DC0000D6E61EC22F0160E056E000E066E000EF2
:103DD000086E010E076E23EC22F0000E0A6E000E34
:103DE0000B6E000E0C6E000E0D6E55EC22F0D9EC31
:103DF00022F0E4EC21F0E806D8B401EF1FF003EF65
:103E00001FF0F9EF1EF0120000018391020E826F85
:103E100012EF1FF0EDEC22F036EF1FF0E9EC22F08C
:103E200036EF1FF070C00EF071C00FF002D822EF15
:103E30001FF00500FA6E6451FD6E6551FE6EFF6A5B
:103E4000FA501200106E116A1150000AD8B42BEF0C
:103E50001FF00EEF1FF01050020AD8B40AEF1FF047
:103E6000010AD8B40AEF1FF00EEF1FF01200F0C0E5
:103E700052F0F1C053F0000E0001AC6F000EAB6FBA
:103E800055EF1FF0EEC03EF0EFC03FF0520E406E17
:103E9000000E416EF2C042F0F3C043F0BAEC14F0F1
:103EA0003E500001AB273F50AC2352C0F6FF53C039
:103EB000F7FFF86A0800F5500009D8A462EF1FF078
:103EC00064EF1FF042EF1FF0ABC0EEF0ACC0EFF0BC
:103ED00012006DEC22F043EC21F0F28EF28C48ECF3
:103EE00020F01EC0A4F01FC0A5F020C0A6F021C085
:103EF000A7F0210E0101506F100E516FA4C052F1B6
:103F0000A5C053F1A6C054F1A7C055F10FEC22F0A3
:103F1000330E0001F56FBB0EF46FDF0EE82EFED7F7
:103F2000F42FFCD7F52FFAD700F000F06FEF1FF059
:103F300058EF00F0BF0E0D6EFF0E0E6E0BC00FF0AF
:103F40000CC010F00D500F260E50102210500AE138
:103F50001A0E0F5CD8A0AFEF1FF0B2EF1FF0010EEA
:103F6000B3EF1FF0000E116E126A11501210D8B488
:103F7000BCEF1FF0BEEF1FF0C5EF1FF0200E0B10BF
:103F80000B6E0C500C6EC9EF1FF00BC00BF00CC089
:103F90000CF0120007C00BF008C00CF005C00DF0CB
:103FA00006C00EF00B50096E0C500A6E0B4A0C2A1C
:103FB00009C0F6FF0AC0F7FF000EF86E0DC0D9FF6A
:103FC0000EC0DAFF0D4A0E2A0F0EF76403D0080068
:103FD000F55005D0F6CFE9FFF7CFEAFFEF50DF6EDF
:103FE000DF50D8A4F6EF1FF0F8EF1FF0D2EF1FF06C
:103FF0001200056E0001FC51D8B401EF20F003EF70
:1040000020F0FAEF1FF09DB808EF20F00AEF20F043
:104010000EEF20F005C0ADFF23EF20F09D98940E29
:104020005A24D96EDA6A000EDA2205C0DFFF5A2A56
:10403000070E5A641EEF20F020EF20F022EF20F050
:10404000000E5A6EFC079D881200000E221A000E08
:10405000231A000E241A800E251A1EC005F01FC058
:1040600006F020C007F021C008F022C009F023C0EC
:104070000AF024C00BF025C00CF078EC0EF005C05F
:104080001EF006C01FF007C020F008C021F012008B
:10409000050E166E100E65EC1DF016C026F017C04A
:1040A00027F026C005F027C006F0076A086A000E50
:1040B00081EC17F005C022F006C023F007C024F001
:1040C00008C025F022C01EF023C01FF024C020F03D
:1040D00025C021F01200000E166E000E156E7CEF4A
:1040E00020F014C007F0086A12C009F013C00AF0EB
:1040F000D3EC1CF0154A162A15501024D96E165010
:104100001120DA6EDF50146E1450D8A48AEF20F01C
:104110008CEF20F071EF20F01200146E010E156E7E
:10412000000183B396EF20F098EF20F0ADEF20F080
:104130008383000E156E1450D8B4A1EF20F0A3EFC6
:1041400020F0A7EF20F0010E816FA9EF20F0020E02
:10415000816F17EC23F046EC22F015501200080E88
:104160000001FC61B6EF20F0B8EF20F0CEEF20F0B8
:10417000940E5924D96EDA6A000EDA22DF50AD6E41
:10418000592A070E5964C7EF20F0C9EF20F0CBEF92
:1041900020F0000E596EFC2BCFEF20F09D981200FE
:1041A00020EE02F00E50D9260F50DA22DECF05F0B5
:1041B000DDCF06F00EC0D9FF0FC0DAFFDECF07F06B
:1041C000DDCF08F023EC22F0000E0A6E000E0B6E1D
:1041D000000E0C6E000E0D6E61EC22F0020E12004D
:1041E000BF0E076EFF0E086E05C009F006C00AF08C
:1041F0000750092608500A220A500AE11A0E095CE3
:10420000D8A005EF21F008EF21F0010E09EF21F011
:10421000000E056E066A1200055006100710081001
:10422000D8B415EF21F017EF21F01FEF21F0000EA9
:10423000051A000E061A000E071A800E081A05C08D
:1042400005F006C006F007C007F008C008F012002D
:1042500005C007F006C008F030EF21F0054A062A35
:1042600005C0D9FF06C0DAFFDF50D8A43AEF21F02D
:104270003CEF21F02EEF21F00750055C056E085051
:104280000658066E1200000E166E000E176E100E07
:10429000CDEC1EF0000E166E100E65EC1DF016C073
:1042A0001EF017C01FF01E90000E166E1EC017F0F5
:1042B0001FC018F0100E96EC1EF01200000E8D6E4E
:1042C000000E8C6E000E896E000E8A6E000E8B6ED4
:1042D000070E966E92689368BF0E946E95687E681E
:1042E0001F0E7F6E000E7C6EF18E120001EE00F04C
:1042F000500EEE6AE806FDE100EE60F0560EEE6A42
:10430000E806FDE15A6A596A586A576A566A5B902C
:104310005B92000169EF1FF00EC005F00FC006F0C0
:10432000000E086E010E076E23EC22F0000E0A6EDE
:10433000000E0B6E000E0C6E000E0D6E61EC22F086
:10434000040E12000EC005F00FC006F0000E086E3D
:10435000020E076E23EC22F0000E0A6E000E0B6EAA
:10436000000E0C6E000E0D6E61EC22F0020E1200BB
:104370000EC005F00FC006F0000E086E010E076EAD
:1043800023EC22F0000E0A6E000E0B6E000E0C6E77
:10439000000E0D6E61EC22F0020E12000EC005F050
:1043A0000FC006F0000E086E020E076E23EC22F01E
:1043B000000E0A6E000E0B6E000E0C6E000E0D6EDF
:1043C00061EC22F0040E1200010E056E000183B3B1
:1043D000ECEF21F0EEEF21F0F8EF21F083957C690E
:1043E0001DEC23F019EC23F01BEC23F082C005F048
:1043F000055012008C0E5824D96EDA6A000EDA22AB
:10440000AECFDFFF582A070E586409EF22F00BEFFA
:1044100022F00DEF22F0000E586E562A1200520EB6
:10442000546E010E556E000E0001EE6F000EEF6F20
:1044300050C1F0F051C1F1F0540EF26F000EF36F65
:1044400037EC1FF01200000183A729EF22F02BEFB9
:1044500022F034EF22F005C07DF006C07EF007C0E8
:104460007FF008C080F083971200C6BA3AEF22F0BE
:104470003CEF22F045EF22F0000EC76E080EC66E2C
:10448000000EC56E130EC86EC68A12004CEF22F0E5
:104490008CEC22F05EEC1EF0000183B352EF22F0B0
:1044A00054EF22F048EF22F012000AC005F00BC0D2
:1044B00006F00CC007F00DC008F0020EE6EC1DF08F
:1044C00012000AC005F00BC006F00CC007F00DC0CA
:1044D00008F0000EE6EC1DF012001FEC23F082EC59
:1044E00022F05EEC21F0BBEC22F023EC1EF0120077
:1044F000C5BC7DEF22F080EF22F0010E81EF22F0AB
:10450000000E1200000EC76E080EC66E000EC56EBD
:10451000130EC86EC69A12009EA691EF22F093EF7A
:1045200022F08CEF22F01200000183817C517C2567
:10453000F9EC22F0030E120000018381D8807C3553
:10454000F9EC22F0050E120000018393000E826F39
:104550000E0E1200000183910DEC23F0040E1200E8
:1045600000018393000E826F0E0E1200066E06503D
:10457000F9EC1FF01200600ED36E000E9B6E12005D
:1045800005C0FAF006C0FBF0120005C0F8F006C046
:10459000F9F0120005C058F106C059F1120005C02B
:1045A000F6F006C0F7F0120005C056F106C057F14C
:1045B0001200000E8DEC20F0120000EC23F0090E2A
:1045C000120000EC23F00A0E1200FDEC22F0050EA2
:1045D000120013EC23F0000E120015EC23F0010E74
:1045E000120015EC23F0020E120015EC23F0010E60
:1045F0001200056E05C0C9FF1200C59AC5881200D9
:10460000C58AC5881200AB98AB881200FAEC21F07D
:1046100012009E861200C9501200C5861200050EB7
:104620001200010E1200C5841200C5821200C5805E
:1046300012009D961200C69A12009E961200D09EFD
:044640001200120052
:020000040020DA
:08000000FFFFFFFFFFFFFFFF00
:020000040030CA
:0E000000FF081F1EFF0B81FF0FC00FE00F4017
:00000001FF
