:0400000058EF00F0C5
:100008005B82FACF01F0FBCF02F0D9CF03F0DACF51
:1000180004F0F2AC12EF00F014EF00F04EEF00F035
:100028009DA819EF00F01BEF00F031EF00F09EA83B
:1000380020EF00F022EF00F031EF00F002D82FEFB0
:1000480000F00500FA6E0001FC51FD6EFD51FE6ED8
:10005800FF6AFA5012004EEF00F09DAA36EF00F04A
:1000680038EF00F04EEF00F09EAA3DEF00F03FEFB2
:1000780000F04EEF00F002D84CEF00F00500FA6EE9
:100088000001FA51FD6EFB51FE6EFF6AFA50120034
:100098004EEF00F004C0DAFF03C0D9FF02C0FBFF37
:0C00A80001C0FAFF5B921100CBEF22F0C8
:101000000054482C481C48E638C43B4848143EDE8F
:1010100048D648CE48C648BE48B648AE483C485E6A
:101020004048656C6C69676B656974203D20252EAE
:101030003266206C75780D0A00494E46004E414ECE
:0D10400000696E66006E616E006C66000057
:10104E00000E0001D16F000ED06F34C0E2F035C03B
:10105E00E3F036C0E4F037C0E5F0E5BF3BEF08F053
:10106E0039EF08F051EF08F0000ED16F010ED06F7E
:10107E00E2C005F0E3C006F0E4C007F0E5C008F0FA
:10108E0060EC22F005C0E2F006C0E3F007C0E4F029
:10109E0008C0E5F0000E0001E96F000EE86FADC06C
:1010AE00D4F0AEC0D5F0D051D111D8A461EF08F074
:1010BE0063EF08F06AEF08F0B1A568EF08F06AEF89
:1010CE0008F084EF08F0D051D111D8A471EF08F0D8
:1010DE0073EF08F079EF08F0000EB76F2B0EB66FB6
:1010EE007DEF08F0000EB76F2D0EB66FB6C000F193
:1010FE00E84BE92BD407D8A0D507E2C005F0E3C032
:10110E0006F0E4C007F0E5C008F0C1EC1AF00504E3
:10111E000610D8A495EF08F097EF08F0EEEF08F060
:10112E00BF0E396EFF0E3A6E38503B6E3C6A395028
:10113E003B263A503C223C500AE11A0E3B5CD8A0AA
:10114E00ABEF08F0AEEF08F0010EAFEF08F0000EB7
:10115E000001B86FB96BB851B911D8B4B9EF08F036
:10116E00BBEF08F0C9EF08F0000EE825056E010E82
:10117E00E921066E390E076E100E086EF5EC20F0A2
:10118E00D5EF08F0000EE825056E010EE921066E7A
:10119E00410E076E100E086EF5EC20F00001FD0EEC
:1011AE00D427FF0ED52332C017F033C018F0000E2F
:1011BE00196E010E1A6ED4C01BF0D5C01CF0AEEC29
:1011CE001BF017C032F018C033F079EF0EF0E2C00A
:1011DE0005F0E3C006F0E4C007F0E5C008F0C1EC8E
:1011EE001AF005500610D8A4FFEF08F001EF09F031
:1011FE0058EF09F0BF0E396EFF0E3A6E38503B6E47
:10120E003C6A39503B263A503C223C500AE11A0EB9
:10121E003B5CD8A015EF09F018EF09F0010E19EF9D
:10122E0009F0000E0001BA6FBB6BBA51BB11D8B4F6
:10123E0023EF09F025EF09F033EF09F0000EE82552
:10124E00056E010EE921066E3D0E076E100E086E3C
:10125E00F5EC20F03FEF09F0000EE825056E010ECB
:10126E00E921066E450E076E100E086EF5EC20F0A5
:10127E000001FD0ED427FF0ED52332C017F033C068
:10128E0018F0000E196E010E1A6ED4C01BF0D5C0E8
:10129E001CF0AEEC1BF017C032F018C033F079EF33
:1012AE000EF0000E0001EA6F000EEB6F800EEC6F79
:1012BE003F0EED6F000EE76F000EE66FE2C005F019
:1012CE00E3C006F0E4C007F0E5C008F0000E096EBA
:1012DE00000E0A6E000E0B6E000E0C6E8DEC1DF0E5
:1012EE00D8B07CEF09F07EEF09F001EF0AF09DEF28
:1012FE0009F0EAC005F0EBC006F0ECC007F0EDC057
:10130E0008F0000E096E000E0A6E200E0B6E410ED6
:10131E000C6E2AEC13F005C0EAF006C0EBF007C025
:10132E00ECF008C0EDF00001E64BE72BE2C01EF03A
:10133E00E3C01FF0E4C020F0E5C021F0000E096EFE
:10134E00000E0A6E200E0B6E410E0C6EEAC005F0FA
:10135E00EBC006F0ECC007F0EDC008F02AEC13F07D
:10136E0005C022F006C023F007C024F008C025F007
:10137E003FEC1AF0D8B0C6EF09F0C8EF09F080EFD5
:10138E0009F0E8EF09F0EAC005F0EBC006F0ECC09A
:10139E0007F0EDC008F0000E096E000E0A6E200E6A
:1013AE000B6E410E0C6E3FEC15F005C0EAF006C058
:1013BE00EBF007C0ECF008C0EDF00001E607D8A096
:1013CE00E707E2C01EF0E3C01FF0E4C020F0E5C066
:1013DE0021F0EAC022F0EBC023F0ECC024F0EDC007
:1013EE0025F03FEC1AF0D8A0FFEF09F001EF0AF05C
:1013FE00CAEF09F038C00BF00C6AC5EC20F00B50A8
:10140E000001D76FD7C0D6F0670ED719D8A412EF48
:10141E000AF014EF0AF03AEF0AF0AF51B011D8A467
:10142E001BEF0AF01DEF0AF021EF0AF0000EB06F6D
:10143E00010EAF6FB0BF2EEF0AF0B05106E1AF054F
:10144E00D8B02CEF0AF02EEF0AF034EF0AF0000EAF
:10145E00D36F060ED26F43EF0AF0AFC0D2F0B0C01A
:10146E00D3F043EF0AF0B0BF3FEF0AF041EF0AF0BE
:10147E002EEF0AF034EF0AF0670ED719D8A44AEF10
:10148E000AF04CEF0AF07BEF0AF0E7AF5AEF0AF0E2
:10149E00FC0EE65DFF0EE759D8A058EF0AF05AEFA2
:1014AE000AF079EF0AF0FF0E396EFF0E3A6ED2C0D7
:1014BE003BF0D3C03CF039503B263A503C22E6512B
:1014CE003B5C3C50800A3D6EE751800A3D58D8A0E7
:1014DE0073EF0AF075EF0AF079EF0AF0660ED66F29
:1014EE007BEF0AF0650ED66FD2C0C8F0D3C0C9F03C
:1014FE00670ED719D8A486EF0AF088EF0AF098EF96
:10150E000AF0660ED619D8A48FEF0AF091EF0AF002
:10151E009AEF0AF0E7BF98EF0AF096EF0AF09AEF0B
:10152E000AF0C84BC92B660ED619D8A4A1EF0AF043
:10153E00A3EF0AF0C3EF0AF0E7BFAAEF0AF0A8EF95
:10154E000AF0B6EF0AF0000EEA6F000EEB6F800E97
:10155E00EC6F3F0EED6F000EE76F000EE66F670E3D
:10156E00D719D8B4BDEF0AF0BFEF0AF0C3EF0AF0F7
:10157E00E651C827E751C923000EE16F000EE06F58
:10158E00E2C0D8F0E3C0D9F0E4C0DAF0E5C0DBF099
:10159E00EAC0CAF0EBC0CBF0ECC0CCF0EDC0CDF0A1
:1015AE0054EF0BF0D8C005F0D9C006F0DAC007F042
:1015BE00DBC008F0EAC009F0EBC00AF0ECC00BF09B
:1015CE00EDC00CF03FEC15F005C01EF006C01FF08C
:1015DE0007C020F008C021F00CEC17F01EC0DCF0A4
:1015EE001FC0DDF020C0DEF021C0DFF0DCC005F052
:1015FE00DDC006F0DEC007F0DFC008F0BCEC19F06D
:10160E0005C0CEF006C0CFF0D8C01EF0D9C01FF076
:10161E00DAC020F0DBC021F0EAC009F0EBC00AF01E
:10162E00ECC00BF0EDC00CF0DCC005F0DDC006F038
:10163E00DEC007F0DFC008F02AEC13F005C022F080
:10164E0006C023F007C024F008C025F079EC21F085
:10165E001EC0D8F01FC0D9F020C0DAF021C0DBF0D8
:10166E00EAC005F0EBC006F0ECC007F0EDC008F0E4
:10167E00000E096E000E0A6E200E0B6E410E0C6EE1
:10168E003FEC15F005C0EAF006C0EBF007C0ECF039
:10169E0008C0EDF00001E04BE12BC851E05DE151D7
:1016AE00800A396EC951800A3958D8A061EF0BF003
:1016BE0063EF0BF0D9EF0AF0EAC005F0EBC006F0CD
:1016CE00ECC007F0EDC008F0000E096E000E0A6EB9
:1016DE00A00E0B6E400E0C6E2AEC13F005C0DCF063
:1016EE0006C0DDF007C0DEF008C0DFF0D8C01EF087
:1016FE00D9C01FF0DAC020F0DBC021F0DCC022F030
:10170E00DDC023F0DEC024F0DFC025F03FEC1AF080
:10171E00D8B094EF0BF096EF0BF0A1EF0BF0000E9C
:10172E000001DC6F000EDD6F000EDE6F000EDF6F4E
:10173E00CAEF0BF0D8C005F0D9C006F0DAC007F03A
:10174E00DBC008F0DCC009F0DDC00AF0DEC00BF033
:10175E00DFC00CF08DEC1DF0D8A0B8EF0BF0BAEF97
:10176E000BF0CAEF0BF00001CEB1C0EF0BF0C2EFE1
:10177E000BF0CAEF0BF0000EDC6F000EDD6F000EEB
:10178E00DE6F000EDF6FE2C005F0E3C006F0E4C0CE
:10179E0007F0E5C008F0DCC009F0DDC00AF0DEC0DD
:1017AE000BF0DFC00CF07AEC0EF005C0D8F006C0DE
:1017BE00D9F007C0DAF008C0DBF0D8C01EF0D9C0EF
:1017CE001FF0DAC020F0DBC021F0000E096E000E13
:1017DE000A6E200E0B6E410E0C6ECAC005F0CBC009
:1017EE0006F0CCC007F0CDC008F02AEC13F005C00F
:1017FE0022F006C023F007C024F008C025F03FEC0D
:10180E001AF0D8A00DEF0CF00FEF0CF038EF0CF033
:10181E000001E64BE72BCAC005F0CBC006F0CCC0EA
:10182E0007F0CDC008F0000E096E000E0A6E200EF5
:10183E000B6E410E0C6E2AEC13F005C0CAF006C0FA
:10184E00CBF007C0CCF008C0CDF0660E0001D61963
:10185E00D8A434EF0CF036EF0CF038EF0CF0C84B88
:10186E00C92BCAC0EAF0CBC0EBF0CCC0ECF0CDC0B7
:10187E00EDF0650E0001D619D8B448EF0CF04AEF22
:10188E000CF050EF0CF0E6C0C6F0E7C0C7F054EF16
:10189E000CF0000EC76F000EC66F000EC56F000E67
:1018AE00C46F000EC36F000EC26F000EE16F000E0C
:1018BE00E06F4FEF0DF0D8C005F0D9C006F0DAC0DA
:1018CE0007F0DBC008F0EAC009F0EBC00AF0ECC08C
:1018DE000BF0EDC00CF03FEC15F005C01EF006C08D
:1018EE001FF007C020F008C021F00CEC17F01EC04E
:1018FE00DCF01FC0DDF020C0DEF021C0DFF0DCC068
:10190E0005F0DDC006F0DEC007F0DFC008F0BCEC6D
:10191E0019F005C0CEF006C0CFF00001B1B99AEFB4
:10192E000CF09CEF0CF0B9EF0CF0CE51CF11D8A407
:10193E00A3EF0CF0A5EF0CF0B9EF0CF0670ED71972
:10194E00D8A4ACEF0CF0AEEF0CF0B9EF0CF0C7BFB3
:10195E00B5EF0CF0B3EF0CF0B9EF0CF0C24BC32B9C
:10196E0003EF0DF0C451C511D8A4C0EF0CF0C2EFB7
:10197E000CF0ECEF0CF0C7BFC9EF0CF0C7EF0CF09A
:10198E00ECEF0CF0000EE825D96E010EE921DA6EAF
:10199E002E0EDF6EE84BE92BD407D8A0D507000E2C
:1019AE00C56F010EC46FECEF0CF0000EE825D96E7A
:1019BE00010EE921DA6E300EDF6EE84BE92BD4070B
:1019CE00D8A0D507C207D8A0C307C251C311D8A447
:1019DE00F3EF0CF0F5EF0CF0DCEF0CF0000EE82559
:1019EE00D96E010EE921DA6ECE51300FDF6EE84B63
:1019FE00E92BD407D8A0D507D8C01EF0D9C01FF048
:101A0E00DAC020F0DBC021F0EAC009F0EBC00AF02A
:101A1E00ECC00BF0EDC00CF0DCC005F0DDC006F044
:101A2E00DEC007F0DFC008F02AEC13F005C022F08C
:101A3E0006C023F007C024F008C025F079EC21F091
:101A4E001EC0D8F01FC0D9F020C0DAF021C0DBF0E4
:101A5E00EAC005F0EBC006F0ECC007F0EDC008F0F0
:101A6E00000E096E000E0A6E200E0B6E410E0C6EED
:101A7E003FEC15F005C0EAF006C0EBF007C0ECF045
:101A8E0008C0EDF00001C607D8A0C707E04BE12B58
:101A9E00C851E05DE151800A396EC951800A39584A
:101AAE00D8B05CEF0DF05EEF0DF06CEF0DF0E9BF0E
:101ABE006AEF0DF0E95109E14B0EE85DD8A06AEF2F
:101ACE000DF06CEF0DF062EF0CF0C451C511D8A4FF
:101ADE0073EF0DF075EF0DF086EF0DF0B1A97AEF03
:101AEE000DF07CEF0DF086EF0DF0000EE825D96EAF
:101AFE00010EE921DA6E2E0EDF6EE84BE92B000E99
:101B0E00E825D96E010EE921DA6E000EDF6E650E44
:101B1E00D619D8A495EF0DF097EF0DF067EF0EF0F4
:101B2E00000EE16F4F0EE06F000EE025D96E010E34
:101B3E00E121DA6E000EDF6E000ED16F000ED06F57
:101B4E00E7BFAEEF0DF0ACEF0DF0B6EF0DF0000EFF
:101B5E00D16F010ED06FE66DE71FD8B0E72B000EE8
:101B6E00D36F020ED26FE7EF0DF0E007D8A0E107BA
:101B7E00000EE025D96E010EE121DA6EE6C005F009
:101B8E00E7C006F0000E086E0A0E076E35EC1DF06B
:101B9E000550300FDF6EE6C005F0E7C006F0000E10
:101BAE00086E0A0E076E11EC1CF005C0E6F006C0BA
:101BBE00E7F00001D207D8A0D307D407D8A0D507E5
:101BCE00E651E711D8A4EEEF0DF0F0EF0DF0BCEFFB
:101BDE000DF0D3BFFDEF0DF0D35106E1D205D8B015
:101BEE00FBEF0DF0FDEF0DF0BCEF0DF0E007D8A010
:101BFE00E107D051D111D8A407EF0EF009EF0EF086
:101C0E000FEF0EF0000EBD6F2B0EBC6F13EF0EF02C
:101C1E00000EBD6F2D0EBC6F000EE025D96E010EAD
:101C2E00E121DA6EBCC0DFFFD407D8A0D507E007EC
:101C3E00D8A0E107BF0E396EFF0E3A6E38503B6EDC
:101C4E003C6A39503B263A503C223C500AE11A0E6F
:101C5E003B5CD8A035EF0EF038EF0EF0010E39EFE9
:101C6E000EF0000EC06FC16BC051C111D8A442EF6F
:101C7E000EF044EF0EF04AEF0EF0000EBF6F650E41
:101C8E00BE6F4EEF0EF0000EBF6F450EBE6F000E14
:101C9E00E025D96E010EE121DA6EBEC0DFFFD4075A
:101CAE00D8A0D507000EE825056E010EE921066EB7
:101CBE00000EE025076E010EE121086EF5EC20F016
:101CCE0032C017F033C018F0000E196E010E1A6EE6
:101CDE00D4C01BF0D5C01CF0AEEC1BF017C032F018
:101CEE0018C033F012000850800B116E08500824F3
:101CFE00136E07AE85EF0EF087EF0EF088EF0EF045
:101D0E0013801350D8B48EEF0EF090EF0EF0A5EFB7
:101D1E000EF01328D8A496EF0EF098EF0EF0A0EF69
:101D2E000EF0000E056E000E066E000E076E000E13
:101D3E00086E078E000E086EADEF0EF0000E056EEB
:101D4E00000E066E000E076E000E086E0C50800B15
:101D5E00126E11501218D8B4B7EF0EF0B9EF0EF094
:101D6E00BAEF0EF0118C0C500C24126E0BAEC2EFAB
:101D7E000EF0C4EF0EF0C5EF0EF012801250D8B474
:101D8E00CBEF0EF0CDEF0EF0E2EF0EF01228D8A44E
:101D9E00D3EF0EF0D5EF0EF0DDEF0EF0000E096E64
:101DAE00000E0A6E000E0B6E000E0C6E0B8E000EE9
:101DBE000C6EEAEF0EF0000E096E000E0A6E000EAB
:101DCE000B6E000E0C6E1350125CD8B0F1EF0EF0CD
:101DDE00F3EF0EF01AEF0FF011ACF8EF0EF0FAEF82
:101DEE000EF0FCEF0EF0800E111A13C014F012C09C
:101DFE0013F014C012F005C014F009C005F014C0A1
:101E0E0009F006C014F00AC006F014C00AF007C0AC
:101E1E0014F00BC007F014C00BF008C014F00CC087
:101E2E0008F014C00CF0000E146E135012C00DF01A
:101E3E000E6A0D5E000E0E5A0EBE2FEF0FF00E50F4
:101E4E0009E11A0E0D5CD8A02FEF0FF031EF0FF055
:101E5E0068EF0FF00550061007100810D8A43AEFDF
:101E6E000FF03DEF0FF0010E3EEF0FF0000E146E6F
:101E7E00000E056E000E066E000E076E000E086E4A
:101E8E0012C013F071EF0FF014A050EF0FF052EFDD
:101E9E000FF058EF0FF0D89014300109146E5AEF6E
:101EAE000FF0D890143205A05FEF0FF061EF0FF036
:101EBE0062EF0FF0148E0834083207320632053204
:101ECE00132A1250135CD8A06FEF0FF071EF0FF0C2
:101EDE004BEF0FF011BC76EF0FF078EF0FF0B8EF7D
:101EEE000FF01350D8A47EEF0FF080EF0FF08AEFB3
:101EFE000FF0000E056E000E066E000E076E000E41
:101F0E00086ED9EF10F0095005260A5006220B5024
:101F1E0007220C50082208A097EF0FF099EF0FF050
:101F2E0045EF10F014A09EEF0FF0A0EF0FF0A6EF0C
:101F3E000FF0D89014300109146EA8EF0FF0D8905E
:101F4E00143205A0ADEF0FF0AFEF0FF0B0EF0FF0C2
:101F5E00148E08340832073206320532132A45EF42
:101F6E0010F00950055C0A5006580B5007580850DF
:101F7E00800A0D6E0C50800A0D58D8B0C9EF0FF0C4
:101F8E00CBEF0FF0F6EF0FF00550095C0D6E06501B
:101F9E000A580E6E07500B580F6E08500C58106EE4
:101FAE00FF0E0D24056EFF0E0E20066EFF0E0F2087
:101FBE00076EFF0E1020086E800E111A146C14504E
:101FCE00D8A4ECEF0FF0EEEF0FF0FEEF0FF0010ED6
:101FDE000526000E062207220822FEEF0FF00950FA
:101FEE00055E0A50065A0B50075A0C50085A0550F7
:101FFE00061007100810D8A407EF10F009EF10F024
:10200E003EEF10F01450D8A40FEF10F011EF10F0B7
:10201E003EEF10F0000E056E000E066E000E076EFF
:10202E00000E086ED9EF10F0D8900536063607363A
:10203E00083614AE25EF10F027EF10F028EF10F051
:10204E00058014A02DEF10F02FEF10F033EF10F0ED
:10205E00D880143635EF10F0D89014361350D8B40B
:10206E003BEF10F03DEF10F03EEF10F0130607AE11
:10207E0043EF10F045EF10F01BEF10F0000E126E54
:10208E0014AE4CEF10F04EEF10F066EF10F014C0DF
:10209E000DF07F0E0D16D8B457EF10F059EF10F06B
:1020AE005DEF10F0010E126E66EF10F005A062EFFC
:1020BE0010F064EF10F066EF10F059EF10F01250C0
:1020CE00D8B46CEF10F06EEF10F099EF10F0010E27
:1020DE000526000E06220722082208A079EF10F02E
:1020EE007BEF10F099EF10F005C00DF006C00EF06A
:1020FE0007C00FF008C010F0103410320F320E323D
:10210E000D320DC005F00EC006F00FC007F010C066
:10211E0008F01328D8B496EF10F098EF10F099EF5E
:10212E0010F0132A1328D8B49FEF10F0A1EF10F07F
:10213E00A9EF10F01350D8A4A7EF10F0A9EF10F0EC
:10214E00BBEF10F0000E056E000E066E000E076E51
:10215E00000E086E1350D8A4B7EF10F0B9EF10F0C0
:10216E00BBEF10F0000E116E13A0C0EF10F0C2EF17
:10217E0010F0C5EF10F0078EC6EF10F0079ED89046
:10218E001330086E11AECEEF10F0D0EF10F0D1EF8D
:10219E0010F0088E05C005F006C006F007C007F067
:1021AE0008C008F0120040C0D9FF41C0DAFFDECFF0
:1021BE00F6FFDDCFF7FFF86A0800F550250AD8A420
:1021CE00EBEF10F0EDEF10F00DEF13F040C0D9FF74
:1021DE0041C0DAFFDE2A000EDD22000E0001AE6FD6
:1021EE00000EAD6FADC0B1F0AEC0B2F0AF69B06968
:1021FE0040C0D9FF41C0DAFFDECFF6FFDDCFF7FFDB
:10220E00F86A0800F5502E0AD8A410EF11F012EF5C
:10221E0011F091EF11F0000EB06F000EAF6F40C0D5
:10222E00D9FF41C0DAFFDE2A000EDD2240C0D9FF01
:10223E0041C0DAFFDECFF6FFDDCFF7FFF86A080008
:10224E00F5502A0AD8A42EEF11F030EF11F04DEF11
:10225E0011F040C0D9FF41C0DAFFDE2A000EDD22A8
:10226E0042C0D9FF43C0DAFFDFCF44F0020EDE26B4
:10227E00DFCF45F0000EDD2244C0D9FF45C0DAFFA6
:10228E00DECFAFF0DDCFB0F091EF11F040C0D9FF4F
:10229E0041C0DAFFDECF0CF0DDCF0DF0EFEC18F021
:1022AE000CC0AFF00DC0B0F064EF11F040C0D9FF1C
:1022BE0041C0DAFFDE2A000EDD22D00E446EFF0E84
:1022CE00456E40C0D9FF41C0DAFFDECFF6FFDDCF4D
:1022DE00F7FFF86A0800F550466E476A44504626E6
:1022EE004550472247500AE10A0E465CD8A082EFBD
:1022FE0011F085EF11F0010E86EF11F0000E486E11
:10230E00496A48504910D8A48FEF11F091EF11F09F
:10231E005DEF11F040C0D9FF41C0DAFFDECFF6FF0E
:10232E00DDCFF7FFF86A0800F5500B6E0C6AC5ECAE
:10233E0020F00B50506E5050D8B4A8EF11F0AAEF09
:10234E0011F0E4EF11F040C0D9FF41C0DAFFDECF4B
:10235E0044F0DDCF45F0010E4426000E452244C068
:10236E00F6FF45C0F7FFF86A0800F5500B6E0C6AD1
:10237E00C5EC20F00B50516E5150D8B4C9EF11F08E
:10238E00CBEF11F0E4EF11F040C0D9FF41C0DAFFFE
:10239E00DECF44F0DDCF45F0020E4426000E45227E
:1023AE0044C0F6FF45C0F7FFF86A0800F5500B6E03
:1023BE000C6AC5EC20F00B50526E660E5018D8A465
:1023CE00EBEF11F0EDEF11F02EEF12F040C0D9FF50
:1023DE0041C0DAFFDECFF6FFDDCFF7FFF86A080067
:1023EE00F5CF53F040C0D9FF41C0DAFFDE2A000E10
:1023FE00DD2242C0D9FF43C0DAFFDFCF44F0040E26
:10240E00DE26DFCF45F0000EDD2244C0D9FF45C0E9
:10241E00DAFFDECF4CF0DECF4DF0DECF4EF0DECF6A
:10242E004FF03EC032F03FC033F04CC034F04DC0E0
:10243E0035F04EC036F04FC037F053C038F027ECB1
:10244E0008F032C03EF033C03FF029EF13F0500ECB
:10245E00056E000E066E490E076E100E086E000E0B
:10246E000A6E020E096E40EC1BF005500610D8A441
:10247E0043EF12F045EF12F0D6EF12F040C0D9FF45
:10248E0041C0DAFFDECF44F0DDCF45F0010E442629
:10249E00000E452244C0F6FF45C0F7FFF86A08005B
:1024AE00F5CF53F0BF0E446EFF0E456E40C0D9FF00
:1024BE0041C0DAFFDECFF6FFDDCFF7FFF86A080086
:1024CE00F550466E476A44504626455047224750BF
:1024DE000AE11A0E465CD8A077EF12F07AEF12F0EE
:1024EE00010E7BEF12F0000E4A6E4B6A4A504B10F3
:1024FE00D8B484EF12F086EF12F0A0EF12F042C0C3
:10250E00D9FF43C0DAFFDFCF44F0040EDE26DFCF63
:10251E0045F0000EDD2244C0D9FF45C0DAFFDECF04
:10252E004CF0DECF4DF0DECF4EF0DECF4FF0B8EFF9
:10253E0012F042C0D9FF43C0DAFFDFCF44F0040EE1
:10254E00DE26DFCF45F0000EDD2244C0D9FF45C0A8
:10255E00DAFFDECF4CF0DECF4DF0DECF4EF0DECF29
:10256E004FF0020E40C0D9FF41C0DAFFDE26000E4A
:10257E00DD223EC032F03FC033F04CC034F04DC0CF
:10258E0035F04EC036F04FC037F053C038F027EC60
:10259E0008F032C03EF033C03FF029EF13F040C0D8
:1025AE00D9FF41C0DAFFDECFF6FFDDCFF7FFF86AC5
:1025BE000800F550250AD8A4E7EF12F0E9EF12F063
:1025CE0000EF13F040C0D9FF41C0DAFFDE2A000E43
:1025DE00DD22000E086E250E076E3EC009F03FC0CC
:1025EE000AF035EC1EF0000E3F6E010E3E6E29EF26
:1025FE0013F040C0D9FF41C0DAFFDE2A000EDD2203
:10260E00000E3F6E000E3E6E29EF13F040C0D9FF54
:10261E0041C0DAFFDECFF6FFDDCFF7FFF86A080024
:10262E00F550076E086A3EC009F03FC00AF035EC5F
:10263E001EF040C0D9FF41C0DAFFDE2A000EDD22B7
:10264E00FAEF12F012000850800B116E0850082499
:10265E00176E07AE35EF13F037EF13F038EF13F0B8
:10266E0017801750D8B43EEF13F040EF13F053EF2E
:10267E0013F01728D8A446EF13F048EF13F050EFDD
:10268E0013F0000E056E000E066E000E076E000EA5
:10269E00086E078E5BEF13F0000E056E000E066ED1
:1026AE00000E076E000E086E0C50800B111A0C50A7
:1026BE000C24126E0BAE66EF13F068EF13F069EF99
:1026CE0013F012801250D8B46FEF13F071EF13F0B5
:1026DE0084EF13F01228D8A477EF13F079EF13F0EC
:1026EE0081EF13F0000E096E000E0A6E000E0B6ED7
:1026FE00000E0C6E0B8E8CEF13F0000E096E000E9A
:10270E000A6E000E0B6E000E0C6E1250D8B492EFC5
:10271E0013F094EF13F09CEF13F01750D8A49AEF28
:10272E0013F09CEF13F0A6EF13F0000E056E000EE3
:10273E00066E000E076E000E086E3EEF15F00B5083
:10274E000502F3CF1CF0F4CF1DF01C50136E146A6B
:10275E00156A166A1D50186E196A1A6A1B6A0A5093
:10276E000602F3CF1CF0F4CF1DF01C501326000E02
:10277E001422152216221D501826000E19221A2276
:10278E001B2209500702F3CF1CF0F4CF1DF01C5092
:10279E001326000E1422152216221D501826000E86
:1027AE0019221A221B2215C016F014C015F013C0E0
:1027BE0014F0136A09500602F3CF1CF0F4CF1DF08B
:1027CE001C5013261D501422000E1522000E162228
:1027DE000A500502F3CF1CF0F4CF1DF01C50132647
:1027EE001D501422000E1522000E162215C016F0D2
:1027FE0014C015F013C014F0136A09500502F3CF7C
:10280E001CF0F4CF1DF01C5013261D501422000E88
:10281E001522000E16220B500602F3CF1CF0F4CF39
:10282E001DF01C5018261D501922000E1A22000EE3
:10283E001B220A500702F3CF1CF0F4CF1DF01C50E0
:10284E0018261D501922000E1A22000E1B220B50A4
:10285E000702F3CF1CF0F4CF1DF01C500D6E1D506F
:10286E000E6E0F6A106A0FC010F00EC00FF00DC082
:10287E000EF00D6A0D5018260E5019220F501A2206
:10288E0010501B2213C00DF014C00EF015C00FF027
:10289E0016C010F0190E59EF14F0D89010320F32F6
:1028AE000E320D32E82E54EF14F00D5018260E5045
:1028BE0019220F501A2210501B2215C016F014C0E8
:1028CE0015F013C014F0136A125017C00DF00E6AF3
:1028DE000D26000E0E22820E0D241C6EFF0E0E20F3
:1028EE001D6E8FEF14F0D890183619361A361B3627
:1028FE0016AE84EF14F086EF14F087EF14F0188004
:10290E00D89013361436153616361C06D8A01D066A
:10291E001AAE94EF14F096EF14F07AEF14F0000E56
:10292E00126E16AE9DEF14F09FEF14F0C3EF14F07D
:10293E00FF0E13140D6EFF0E14140E6EFF0E1514F3
:10294E000F6E7F0E1614106E0D500E100F1010100D
:10295E00D8B4B4EF14F0B6EF14F0BAEF14F0010ED1
:10296E00126EC3EF14F018A0BFEF14F0C1EF14F005
:10297E00C3EF14F0B6EF14F01250D8B4C9EF14F040
:10298E00CBEF14F0EFEF14F0010E1826000E192203
:10299E001A221B221BA0D6EF14F0D8EF14F0EFEF83
:1029AE0014F018C00DF019C00EF01AC00FF01BC0B5
:1029BE0010F0103410320F320E320D320DC018F0EE
:1029CE000EC019F00FC01AF010C01BF01C4A1D2AC1
:1029DE001DBEFAEF14F01D5008E11C28D8A0FAEF26
:1029EE0014F0FCEF14F006EF15F0000E186E000E4A
:1029FE00196E800E1A6E7F0E1B6E34EF15F01DBE13
:102A0E0013EF15F01D5006E11C04D8B011EF15F0B0
:102A1E0013EF15F01FEF15F0000E186E000E196E65
:102A2E00000E1A6E000E1B6E000E116E34EF15F0B6
:102A3E001CC017F0FF0E1816FF0E19167F0E1A1671
:102A4E00000E1B1617A02EEF15F030EF15F031EF1C
:102A5E0015F01A8ED89017301B6E11501B1218C01D
:102A6E0005F019C006F01AC007F01BC008F01200DE
:102A7E000850800B156E085008241C6E07AE4AEFE6
:102A8E0015F04CEF15F04DEF15F01C801C50D8B41E
:102A9E0053EF15F055EF15F06AEF15F01C28D8A47A
:102AAE005BEF15F05DEF15F065EF15F0000E056E9E
:102ABE00000E066E000E076E000E086E078E000EDC
:102ACE00086E72EF15F0000E056E000E066E000E0B
:102ADE00076E000E086E0C50800B151A0C500C244D
:102AEE001D6E0BAE7DEF15F07FEF15F080EF15F03C
:102AFE001D801D50D8B486EF15F088EF15F09DEFB0
:102B0E0015F01D28D8A48EEF15F090EF15F098EF64
:102B1E0015F0000E096E000E0A6E000E0B6E000E02
:102B2E000C6E0B8E000E0C6EA5EF15F0000E096EDE
:102B3E00000E0A6E000E0B6E000E0C6E09500A107F
:102B4E000B100C10D8A4AEEF15F0B0EF15F0C8EFC7
:102B5E0015F0000E056E000E066E000E076E000ECE
:102B6E00086E800E07127F0E08121550081205C04F
:102B7E0005F006C006F007C007F008C008F00BEF1E
:102B8E0017F01C50D8A4CEEF15F0D0EF15F0DAEFF9
:102B9E0015F0000E056E000E066E000E076E000E8E
:102BAE00086E0BEF17F01D501CC00DF00E6A0D5E77
:102BBE00000E0E5A7F0E0D24166E000E0E20176E8E
:102BCE0005C011F006C012F007C013F008C014F0D3
:102BDE00000E056E000E066E000E076E000E086EDD
:102BEE00000E186E000E196E000E1A6E000E1B6E81
:102BFE00000E1D6E3BEF16F01D50D8B409EF16F007
:102C0E000BEF16F022EF16F0D8901136123613365F
:102C1E001436D89005360636073608361BAE1AEF30
:102C2E0016F01CEF16F01DEF16F00580D890183632
:102C3E0019361A361B360950115C0A5012580B50B1
:102C4E0013580C501458D8A02FEF16F031EF16F081
:102C5E003AEF16F01B8C0950115E0A50125A0B50A7
:102C6E00135A0C50145A1D2A190E1D6441EF16F0FA
:102C7E0043EF16F003EF16F011501210131014104C
:102C8E00D8B44CEF16F04EEF16F066EF16F0188033
:102C9E0066EF16F0D89005360636073608361BAEA8
:102CAE005BEF16F05DEF16F05EEF16F00580D89034
:102CBE00183619361A361B361606D8A0170607AE62
:102CCE006BEF16F06DEF16F051EF16F0000E1D6E55
:102CDE001BAE74EF16F076EF16F09AEF16F0FF0EAD
:102CEE0018140D6EFF0E19140E6EFF0E1A140F6EC1
:102CFE007F0E1B14106E0D500E100F101010D8B446
:102D0E008BEF16F08DEF16F091EF16F0010E1D6E93
:102D1E009AEF16F005A096EF16F098EF16F09AEFD0
:102D2E0016F08DEF16F01D50D8B4A0EF16F0A2EFEE
:102D3E0016F0C6EF16F0010E0526000E062207222B
:102D4E00082208A0ADEF16F0AFEF16F0C6EF16F0A2
:102D5E0005C00DF006C00EF007C00FF008C010F051
:102D6E00103410320F320E320D320DC005F00EC07F
:102D7E0006F00FC007F010C008F0164A172A17BE4B
:102D8E00D1EF16F0175008E11628D8A0D1EF16F0A3
:102D9E00D3EF16F0DEEF16F0000E176E1668000E6B
:102DAE00056E000E066E000E076E000E086E17BE44
:102DBE00EBEF16F0175006E11604D8B0E9EF16F057
:102DCE00EBEF16F0F9EF16F0000E176E000E166E02
:102DDE00000E056E000E066E000E076E000E086EDB
:102DEE00000E156E16C01CF01CA000EF17F002EFBF
:102DFE0017F005EF17F0078E06EF17F0079ED89025
:102E0E001C30086EBCEF15F012009CC02EF09DC059
:102E1E002FF09EC030F09FC031F01EC02EF01FC0AC
:102E2E002FF020C030F021C031F0810E226EFF0E47
:102E3E00236E2EC024F02FC025F030C026F031C0F6
:102E4E0027F0180E30EF17F0D890273226322532A1
:102E5E002432E82E2BEF17F0245022242C6E000E75
:102E6E0023202D6E2DBE45EF17F02D5009E1170EC4
:102E7E002C5CD8A045EF17F047EF17F051EF17F085
:102E8E001EC01EF01FC01FF020C020F021C021F078
:102E9E0014EF18F02DBE56EF17F058EF17F0C8EFDD
:102EAE0017F02CC022F0FF0E236EFF0E246E7F0E45
:102EBE00256E000E266E226667EF17F06FEF17F085
:102ECE0026342632253224322332222E62EF17F098
:102EDE0023C028F024C029F025C02AF026C02BF0EC
:102EEE0028502E14226E29502F14236E2A5030147F
:102EFE00246E2B503114256E2250231024102510D1
:102F0E00D8A48CEF17F08EEF17F090EF17F047EF75
:102F1E0017F02EC022F02FC023F030C024F031C0A5
:102F2E0025F0200EA0EF17F0D89025322432233250
:102F3E002232E82E9BEF17F022502310241025107A
:102F4E00D8B4ACEF17F0AEEF17F0B6EF17F028507D
:102F5E002E2629502F222A5030222B503122281C67
:102F6E00226E291C236E2A1C246E2B1C256E2250C9
:102F7E002E1623502F1624503016255031160CEFD6
:102F8E0018F02EC022F02FC023F030C024F031C034
:102F9E0025F0200ED8EF17F0D890253224322332A8
:102FAE002232E82ED3EF17F02250231024102510D2
:102FBE00D8A4E4EF17F0E6EF17F0F0EF17F0000EDD
:102FCE002E6E000E2F6E000E306E000E316E0CEF58
:102FDE0018F0D8902E34226E2F34236E3034246E97
:102FEE003134256E2250231024102510D8B402EF50
:102FFE0018F004EF18F00CEF18F0000E2E6E000E05
:10300E002F6E800E306EBF0E316E2EC01EF02FC092
:10301E001FF030C020F031C021F012000D6E0D50A7
:10302E00D8B41CEF18F01EEF18F040EF18F008BEE1
:10303E0025EF18F023EF18F040EF18F005C009F057
:10304E0006C00AF007C00BF008C00CF0091E0A1EDD
:10305E000B1E0C1E092A000E0A220B220C2209C07E
:10306E000FF00AC010F00BC011F00CC012F048EFB8
:10307E0018F005C00FF006C010F007C011F008C020
:10308E0012F00550061007100810D8A451EF18F0D2
:10309E0053EF18F05DEF18F0000E056E000E066E81
:1030AE00000E076E000E086EEEEF18F0960E0E6E06
:1030BE0067EF18F00E2AD8901232113210320F32FA
:1030CE00000E0F14096E000E10140A6E000E11146D
:1030DE000B6EFE0E12140C6E09500A100B100C1013
:1030EE00D8A47CEF18F07EEF18F061EF18F08CEF9B
:1030FE0018F00E2A010E0F26000E10221122122297
:10310E00D8901232113210320F32000E0F14096E97
:10311E00000E10140A6E000E11140B6EFF0E121418
:10312E000C6E09500A100B100C10D8A4A1EF18F059
:10313E00A3EF18F080EF18F0ABEF18F00E06D89052
:10314E000F3610361136123611BEB0EF18F0B2EF40
:10315E0018F0BAEF18F0020E0E60B8EF18F0BAEFD2
:10316E0018F0A5EF18F00EB0BFEF18F0C1EF18F081
:10317E00C2EF18F0119ED8900E320EC009F00A6AF6
:10318E000B6A0C6A09C00CF00B6A0A6A096A0950CC
:10319E000F120A5010120B5011120C5012120D5029
:1031AE00D8B4DCEF18F0DEEF18F0E6EF18F008BE3A
:1031BE00E5EF18F0E3EF18F0E6EF18F0128E0FC0FF
:1031CE0005F010C006F011C007F012C008F0120092
:1031DE00000E1A6E000E196E000E136E000E126E99
:1031EE00FBEF18F00C4A0D2A010E186E0CC0F6FFFC
:1031FE000DC0F7FFF86A0800F550200AD8B40AEFA0
:10320E0019F00CEF19F02AEF19F0F70E0E6EFF0EF3
:10321E000F6E0CC0F6FF0DC0F7FFF86A0800F550F0
:10322E00106E116A0E5010260F501122115009E126
:10323E00050E105CD8A026EF19F028EF19F02AEF32
:10324E0019F0000E186E18C014F0156A14501510EF
:10325E00D8A434EF19F036EF19F0F9EF18F040EF6B
:10326E0019F0000E136E010E126E0C4A0D2A77EF36
:10327E0019F00CC0F6FF0DC0F7FFF86A0800F55004
:10328E000E6E0F6A0F50000AD8B450EF19F077EF98
:10329E0019F00E502B0AD8B43CEF19F0060AD8B428
:1032AE0038EF19F077EF19F019C005F01AC006F0D3
:1032BE00000E086E0A0E076E79EC23F00CC0F6FFB6
:1032CE000DC0F7FFF86A0800F550055E000E065AAD
:1032DE00300E0524196E000E06201A6E3CEF19F002
:1032EE00D00E0E6EFF0E0F6E0CC0F6FF0DC0F7FF68
:1032FE00F86A0800F550106E116A0E5010260F5025
:10330E00112211500AE10A0E105CD8A091EF19F0AB
:10331E0094EF19F0010E95EF19F0000E166E176A64
:10332E0016501710D8A49EEF19F0A0EF19F05BEF0E
:10333E0019F012501310D8A4A7EF19F0A9EF19F035
:10334E00B7EF19F019C00EF01AC00FF00E1E0F1EB7
:10335E000E4A0F2A0EC00CF00FC00DF0BBEF19F085
:10336E0019C00CF01AC00DF01200073408340E6E9E
:10337E000E50D8A4C5EF19F0C7EF19F0D1EF19F020
:10338E00000E056E000E066E000E076E000E086E25
:10339E003EEF1AF005C009F006C00AF007C00BF0A8
:1033AE0008C00CF0200EE1EF19F0D8900C320B3261
:1033BE000A320932E82EDCEF19F009500D6E078E35
:1033CE00FF0E0516FF0E0616FF0E0716000E081648
:1033DE00960E0E5E0EBEF8EF19F0F6EF19F00EEF28
:1033EE001AF00E50800A970FD8B000EF1AF002EFC5
:1033FE001AF004EF1AF0C7EF19F0D890083207321E
:10340E00063205320E3E04EF1AF026EF1AF01F0EAA
:10341E000E6414EF1AF016EF1AF01EEF1AF0C7EF43
:10342E0019F0D89005360636073608360E060E50B9
:10343E00D8A424EF1AF026EF1AF018EF1AF00D5058
:10344E00D8B42CEF1AF02EEF1AF036EF1AF0081E41
:10345E00071E061E056C000E06220722082205C056
:10346E0005F006C006F007C007F008C008F012000D
:10347E00000E1E14266E000E1F14276E800E2014D2
:10348E00286E7F0E2114296E265027102810291021
:10349E00D8A454EF1AF056EF1AF05EEF1AF0000EA1
:1034AE001E6E000E1F6E000E206E000E216E000EA0
:1034BE002214266E000E2314276E800E2414286EFE
:1034CE007F0E2514296E2650271028102910D8A4F7
:1034DE0073EF1AF075EF1AF07DEF1AF0000E226EF0
:1034EE00000E236E000E246E000E256E21AE82EFAE
:1034FE001AF084EF1AF08DEF1AF01E6C1F1ED8B062
:10350E001F2A201ED8B0202A800E215625AE92EFFB
:10351E001AF094EF1AF09DEF1AF0226C231ED8B019
:10352E00232A241ED8B0242A800E2556000E1E1AD9
:10353E00000E1F1A000E201A800E211A000E221ADB
:10354E00000E231A000E241A800E251A22501E5C1D
:10355E0023501F582450205825502158D8B0BAEF68
:10356E001AF0BCEF1AF0BFEF1AF0D890C0EF1AF0B5
:10357E00D8801200A0C00FF0A1C010F0A2C011F0B0
:10358E00A3C012F005C00FF006C010F007C011F076
:10359E0008C012F00FC009F010C00AF011C00BF0F5
:1035AE0012C00CF0180EE1EF1AF0D8900C320B325C
:1035BE000A320932E82EDCEF1AF009500D6E0E6A4F
:1035CE000D500E10D8A4EEEF1AF0F0EF1AF010EF27
:1035DE001BF0D8900F34096E10340A6E11340B6E36
:1035EE0012340C6E09500A100B100C10D8A402EFF6
:1035FE001BF004EF1BF00AEF1BF0000E066E020E1E
:10360E00056E3FEF1BF0000E066E030E056E3FEFCC
:10361E001BF00D280E10D8A417EF1BF019EF1BF09E
:10362E003BEF1BF00FC009F010C00AF011C00BF0F9
:10363E0012C00CF0090ED89009360A360B360C362D
:10364E00E82E22EF1BF009500A100B100C10D8B404
:10365E0033EF1BF036EF1BF0010E37EF1BF0000EB1
:10366E00056E066A3FEF1BF0000E066E040E056E29
:10367E00120005C00CF006C00DF007C00EF008C019
:10368E000FF00906D8A00A06092806E10A28D8A4D0
:10369E0053EF1BF055EF1BF062EF1BF0000E066EA2
:1036AE00000E056EADEF1BF00C4A0D2A0E4A0F2AC6
:1036BE000906D8A00A060CC0D9FF0DC0DAFFDF50EC
:1036CE00D8B46CEF1BF06EEF1BF09BEF1BF00EC02F
:1036DE00F6FF0FC0F7FFF86A0800F5500009D8B4DE
:1036EE007BEF1BF07DEF1BF09BEF1BF009500A10D8
:1036FE00D8B484EF1BF086EF1BF09BEF1BF00CC0D1
:10370E00D9FF0DC0DAFFDF500B6E0EC0F6FF0FC0F3
:10371E00F7FFF86A0800F5500B18D8B499EF1BF0B4
:10372E009BEF1BF05BEF1BF00CC0D9FF0DC0DAFF57
:10373E00DF500B6E0EC0F6FF0FC0F7FFF86A0800E1
:10374E00F5500B5C056E066AD8A006061200000145
:10375E00B1A1B4EF1BF0B6EF1BF0C0EF1BF019C018
:10376E0010F01AC011F017C012F018C013F0BFEC11
:10377E0021F01CBEC5EF1BF0C7EF1BF0CDEF1BF009
:10378E001BC020F01CC021F0D1EF1BF0000E216EEB
:10379E00000E206E000E1F6E000E1E6EE3EF1BF06D
:1037AE00000E086E200E076E17C009F018C00AF042
:1037BE0035EC1EF01E4A1F2A20501E5C1F50800A38
:1037CE001D6E2150800A1D58D8A0F0EF1BF0F2EFAD
:1037DE001BF0D7EF1BF00001B1B1F8EF1BF0FAEFC1
:1037EE001BF004EF1CF019C010F01AC011F017C036
:1037FE0012F018C013F0BFEC21F019C005F01AC07A
:10380E0006F098EC22F020500524176E2150062069
:10381E00186E1200000E0A6E08BE1AEF1CF018EF9A
:10382E001CF020EF1CF0076C081ED8B0082A010E01
:10383E000A6E06BE27EF1CF025EF1CF02DEF1CF0D4
:10384E00056C061ED8B0062A010E0A1A000E0C6E62
:10385E00000E0B6E07500810D8B438EF1CF03AEF7C
:10386E001CF062EF1CF0010E096E42EF1CF0D890B6
:10387E0007360836092A08AE47EF1CF049EF1CF050
:10388E003EEF1CF0D8900B360C360750055C0850F6
:10389E000658D8A055EF1CF057EF1CF05CEF1CF04B
:1038AE000750055E0850065A0B80D8900832073232
:1038BE00092E49EF1CF00A50D8B468EF1CF06AEFDD
:1038CE001CF06EEF1CF00B6C0C1ED8B00C2A0BC04B
:1038DE0005F00CC006F01200F2EC23F00009D8B48B
:1038EE007BEF1CF07DEF1CF0B8EF1CF08BEF1CF0A3
:1038FE006FEC24F0D4EF1CF06BEC24F0D4EF1CF042
:10390E0063EC24F0D4EF1CF072C00EF073C00FF015
:10391E0002D89CEF1CF00500FA6E00016651FD6E98
:10392E006751FE6EFF6AFA501200106E116A115046
:10393E00000AD8B4A5EF1CF087EF1CF01050010A56
:10394E00D8B487EF1CF0030AD8B47FEF1CF0010A3D
:10395E00D8B483EF1CF0070AD8B487EF1CF087EFBA
:10396E001CF0000183917DC0D9FF7EC0DAFF7D4B34
:10397E007E2BDF5073EC24F000017F07D8A0800768
:10398E007F518011D8A4CEEF1CF0D0EF1CF0D3EFF6
:10399E001CF0060ED4EF1CF0030E1200840E5824F9
:1039AE00D96EDA6A000EDA22000EDF6EABA4E2EFF9
:1039BE001CF0E4EF1CF0F9EF1CF0840E5824D96EC5
:1039CE00DA6A000EDA220001DF8202D8F9EF1CF06B
:1039DE000500FA6E01015451FD6E5551FE6EFF6ADF
:1039EE00FA501200ABA2FEEF1CF000EF1DF015EF27
:1039FE001DF0840E5824D96EDA6A000EDA22000108
:103A0E00DF8402D815EF1DF00500FA6E0101525148
:103A1E00FD6E5351FE6EFF6AFA501200840E58244A
:103A2E00D96EDA6A000EDA22DF50D8B421EF1DF01B
:103A3E0023EF1DF032EF1DF002D830EF1DF0050020
:103A4E00FA6E01015051FD6E5151FE6EFF6AFA5031
:103A5E00120034EF1DF064EC23F01200000E0A6E1B
:103A6E0006BE3EEF1DF03CEF1DF044EF1DF0056C61
:103A7E00061ED8B0062A010E0A6E08BE4BEF1DF0C8
:103A8E0049EF1DF04FEF1DF0076C081ED8B0082A45
:103A9E0007500810D8B456EF1DF058EF1DF07CEF0C
:103AAE001DF0010E096E60EF1DF0D8900736083636
:103ABE00092A08AE65EF1DF067EF1DF05CEF1DF0F3
:103ACE000750055C08500658D8A070EF1DF072EF35
:103ADE001DF076EF1DF00750055E0850065AD8907F
:103AEE0008320732092E67EF1DF00A50D8B482EF64
:103AFE001DF084EF1DF088EF1DF0056C061ED8B08A
:103B0E00062A05C005F006C006F01200000E0514C8
:103B1E000D6E000E06140E6E800E07140F6E7F0EC5
:103B2E000814106E0D500E100F101010D8A4A2EF26
:103B3E001DF0A4EF1DF0ACEF1DF0000E056E000E93
:103B4E00066E000E076E000E086E000E09140D6E46
:103B5E00000E0A140E6E800E0B140F6E7F0E0C14D8
:103B6E00106E0D500E100F101010D8A4C1EF1DF0D6
:103B7E00C3EF1DF0CBEF1DF0000E096E000E0A6EA6
:103B8E00000E0B6E000E0C6E095005180FE10A5058
:103B9E0006180CE10B50071809E10C500818D8B4A0
:103BAE00DBEF1DF0DDEF1DF0E0EF1DF0D890E1EF43
:103BBE001DF0D880120085EC24F07DC0D9FF7EC0A8
:103BCE00DAFFDF6E00017D4B7E2B7F07D8A08007CA
:103BDE007F518011D8B4F6EF1DF0F8EF1DF0FDEF18
:103BEE001DF077EC24F0050E34EF1EF0838708EFFE
:103BFE001EF057EC24F034EF1EF05BEC24F034EFA3
:103C0E001EF06CC00EF06DC00FF002D818EF1EF053
:103C1E000500FA6E6051FD6E6151FE6EFF6AFA503C
:103C2E001200106E116A1150000AD8B421EF1EF066
:103C3E0004EF1EF01050010AD8B404EF1EF0030A70
:103C4E00D8B400EF1EF0010AD8B400EF1EF0070A38
:103C5E00D8B404EF1EF004EF1EF0120009500A1043
:103C6E00D8B43CEF1EF03EEF1EF047EF1EF00950A9
:103C7E000A10D8A445EF1EF047EF1EF04CEF1EF0D1
:103C8E00075030EC24F07FEF1EF020EE04F00950C8
:103C9E00D9260A50DA22DE50DE10D8B459EF1EF0C3
:103CAE005BEF1EF076EF1EF020EE04F00950D926E1
:103CBE000A50DA2210EE02F00950E1260A50E222F2
:103CCE00DE50E65CE650800A0F6EDE50800A0F581A
:103CDE00D8B074EF1EF076EF1EF07FEF1EF020EEE0
:103CEE0002F00950D9260A50DA22DE2A000EDD2211
:103CFE001200056E010E066E000183B589EF1EF0EF
:103D0E008BEF1EF0C5EF1EF005C07CF0839383850C
:103D1E0083910E0E816F010E7B6FF40E7A6F838787
:103D2E00160E606F490E616F000E6C6F000E6D6F98
:103D3E00160E626F490E636F000E6E6F000E6F6F80
:103D4E00160E646F490E656F000E706F000E716F68
:103D5E00160E666F490E676F000E726F000E736F50
:103D6E00120E686F490E696F000E746F000E756F3C
:103D7E0097EC24F0AFEC23F0000E066E0650120006
:103D8E001B6E000E1D6E000E1C6E1B5080EC1EF086
:103D9E000009D8B4D5EF1EF0D7EF1EF0CCEF1EF011
:103DAE00EE0E0A6E450E0B6E1C0E0C6E000E0D6E98
:103DBE00DBEC23F0160E056E000E066E000E086E7E
:103DCE00010E076E8CEC23F0000E0A6E000E0B6EC9
:103DDE00000E0C6E000E0D6ECFEC23F053EC24F0A3
:103DEE0039EC23F0E806D8B4FFEF1EF001EF1FF018
:103DFE00F7EF1EF01DC018F01C50196E1850166EFD
:103E0E0019C017F01200000183871BEF1FF067EC3B
:103E1E0024F047EF1FF083EC24F0030E47EF1FF062
:103E2E0063EC24F047EF1FF06CC00EF06DC00FF086
:103E3E0002D82BEF1FF00500FA6E6051FD6E615136
:103E4E00FE6EFF6AFA501200106E116A1150000ACF
:103E5E00D8B434EF1FF017EF1FF01050010AD8B48A
:103E6E0017EF1FF0030AD8B40EEF1FF0010AD8B4F3
:103E7E000EEF1FF0070AD8B412EF1FF017EF1FF066
:103E8E001200096E05500610D8B450EF1FF052EF15
:103E9E001FF06CEF1FF00950020D600EF324D96E67
:103EAE00000EF420DA6E05C0DEFF06C0DDFF0950FD
:103EBE00020D6C0EF324D96E000EF420DA6E07C0DC
:103ECE00DEFF08C0DDFF84EF1FF00950020D600E0B
:103EDE00F324D96E000EF420DA6E160EDE6E490E45
:103EEE00DD6E0950020D6C0EF324D96E000EF42017
:103EFE00DA6E000EDE6E000EDD6E12009D9AAA0EB8
:103F0E00056E390E066E3FEC24F09D98060E056E7A
:103F1E00440E066E3AEC24F0080EB86E900EAB6EA0
:103F2E00240EAC6ECF0EAF6E000EB06E360E056E5A
:103F3E00490E066E49EC24F0FA0E056E480E066E1A
:103F4E0044EC24F0000E056E490E066E4EEC24F085
:103F5E00000E0001B56F000E5A6E000E596E080E5F
:103F6E00FE6F000E586E000E576E000E566E9D8A36
:103F7E00120097EC24F0000183A1C8EF1FF0CAEFE6
:103F8E001FF0D7EF1FF0F2EC23F00009D8B4D2EFF8
:103F9E001FF0D4EF1FF0D7EF1FF00F0E0001816F4F
:103FAE0000018151020D010EF324F66E100EF42065
:103FBE00F76EF86A000EF8220900F5CF12F009002C
:103FCE00F5CF13F002D8F5EF1FF00500FA6E125080
:103FDE00FD6E1350FE6EFF6AFA5012000001816FE3
:103FEE001200186E185080EC1EF00009D8B402EFC3
:103FFE0020F004EF20F0F9EF1FF0C20E0A6E450E0E
:10400E000B6E170E0C6E000E0D6EDBEC23F0160E03
:10401E00056E000E066E000E086E010E076E8CEC1D
:10402E0023F0000E0A6E000E0B6E000E0C6E000ECC
:10403E000D6ECFEC23F053EC24F039EC23F0E806B0
:10404E00D8B42CEF20F02EEF20F024EF20F0120049
:10405E0000018391020E826F3DEF20F067EC24F099
:10406E0061EF20F063EC24F061EF20F070C00EF0F1
:10407E0071C00FF002D84DEF20F00500FA6E6451BA
:10408E00FD6E6551FE6EFF6AFA501200106E116AD7
:10409E001150000AD8B456EF20F039EF20F010502E
:1040AE00020AD8B435EF20F0010AD8B435EF20F06B
:1040BE0039EF20F01200F0C054F0F1C055F0000EB0
:1040CE000001AC6F000EAB6F80EF20F0EEC03EF043
:1040DE00EFC03FF0540E406E000E416EF2C042F043
:1040EE00F3C043F0DAEC10F03E500001AB273F5026
:1040FE00AC2354C0F6FF55C0F7FFF86A0800F55020
:10410E000009D8A48DEF20F08FEF20F06DEF20F096
:10411E00ABC0EEF0ACC0EFF01200E7EC23F09EEC7B
:10412E0023F0F28EF28C9CEC21F01EC0A4F01FC086
:10413E00A5F020C0A6F021C0A7F0210E0001F46F5B
:10414E00100EF56FA4C0F6F0A5C0F7F0A6C0F8F0FB
:10415E00A7C0F9F04FEC23F0060E0101596F130EB4
:10416E00586FAD0EE82EFED7582FFCD7592FFAD721
:10417E0000F000F09AEF20F058EF00F0BF0E0D6E39
:10418E00FF0E0E6E0BC00FF00CC010F00D500F2670
:10419E000E50102210500AE11A0E0F5CD8A0DAEF62
:1041AE0020F0DDEF20F0010EDEEF20F0000E116E9C
:1041BE00126A11501210D8B4E7EF20F0E9EF20F098
:1041CE00F0EF20F0200E0B100B6E0C500C6EF4EF77
:1041DE0020F00BC00BF00CC00CF0120007C00BF05F
:1041EE0008C00CF005C00DF006C00EF00B50096EA5
:1041FE000C500A6E0B4A0C2A09C0F6FF0AC0F7FFD4
:10420E00000EF86E0DC0D9FF0EC0DAFF0D4A0E2A51
:10421E000F0EF76403D00800F55005D0F6CFE9FF76
:10422E00F7CFEAFFEF50DF6EDF50D8A421EF21F079
:10423E0023EF21F0FDEF20F01200056E0001FE517C
:10424E00D8B42CEF21F02EEF21F025EF21F09DB800
:10425E0033EF21F035EF21F039EF21F005C0ADFF3E
:10426E004EEF21F09D98940E5A24D96EDA6A000E04
:10427E00DA2205C0DFFF5A2A070E5A6449EF21F0F1
:10428E004BEF21F04DEF21F0000E5A6EFE079D8888
:10429E001200010E0B6E200E05180610D8B45AEF40
:1042AE0021F05CEF21F075EF21F0F70E076EFF0E97
:1042BE00086E05C009F006C00AF00750092608501E
:1042CE000A220A5009E1050E095CD8A071EF21F00F
:1042DE0073EF21F075EF21F0000E0B6E0BC005F0A1
:1042EE00066A1200000E221A000E231A000E241A5D
:1042FE00800E251A1EC005F01FC006F020C007F064
:10430E0021C008F022C009F023C00AF024C00BF02F
:10431E0025C00CF07AEC0EF005C01EF006C01FF0A2
:10432E0007C020F008C021F01200040E166E100E09
:10433E00C7EC1EF016C026F017C027F026C005F0F9
:10434E0027C006F0076A086A000E15EC18F005C0C3
:10435E0022F006C023F007C024F008C025F022C0CA
:10436E001EF023C01FF024C020F025C021F0120043
:10437E00000E166E000E156ED0EF21F014C007F071
:10438E00086A12C009F013C00AF035EC1EF0154A87
:10439E00162A15501024D96E16501120DA6EDF50E1
:1043AE00146E1450D8A4DEEF21F0E0EF21F0C5EF2B
:1043BE0021F01200146E010E156E000183B3EAEFA8
:1043CE0021F0ECEF21F001EF22F08383000E156E49
:1043DE001450D8B4F5EF21F0F7EF21F0FBEF21F0F8
:1043EE00010E816FFDEF21F0020E816F91EC24F032
:1043FE00C0EC23F015501200080E0001FE610AEF0A
:10440E0022F00CEF22F022EF22F0940E5924D96EF6
:10441E00DA6A000EDA22DF50AD6E592A070E5964A1
:10442E001BEF22F01DEF22F01FEF22F0000E596E4F
:10443E00FE2B23EF22F09D98120020EE02F00E507C
:10444E00D9260F50DA22DECF05F0DDCF06F00EC0F2
:10445E00D9FF0FC0DAFFDECF07F0DDCF08F08CEC0E
:10446E0023F0000E0A6E000E0B6E000E0C6E000E88
:10447E000D6EDBEC23F0020E1200BF0E076EFF0E68
:10448E00086E05C009F006C00AF00750092608504C
:10449E000A220A500AE11A0E095CD8A059EF22F03E
:1044AE005CEF22F0010E5DEF22F0000E056E066A43
:1044BE0012000550061007100810D8B469EF22F04C
:1044CE006BEF22F073EF22F0000E051A000E061AA3
:1044DE00000E071A800E081A05C005F006C006F079
:1044EE0007C007F008C008F01200D00E076EFF0ECE
:1044FE00086E05C009F006C00AF0075009260850DC
:10450E000A220A500AE10A0E095CD8A091EF22F0A5
:10451E0094EF22F0010E95EF22F0000E056E066A62
:10452E00120005C007F006C008F0A0EF22F0054A01
:10453E00062A05C0D9FF06C0DAFFDF50D8A4AAEFBD
:10454E0022F0ACEF22F09EEF22F00750055C056ED4
:10455E0008500658066E1200000E8D6E000E8C6E00
:10456E00000E896E000E8A6E000E8B6E070E966E12
:10457E0092689368BF0E946E95687E681F0E7F6E6C
:10458E00000E7C6EF18E120001EE00F0500EEE6AFF
:10459E00E806FDE100EE60F0560EEE6AE806FDE17B
:1045AE005A6A596A586A576A566A5B905B9200015A
:1045BE0094EF20F00EC005F00FC006F0000E086E4E
:1045CE00010E076E8CEC23F0000E0A6E000E0B6EC1
:1045DE00000E0C6E000E0D6EDBEC23F0040E1200BE
:1045EE000EC005F00FC006F0000E086E020E076E2C
:1045FE008CEC23F0000E0A6E000E0B6E000E0C6E8D
:10460E00000E0D6EDBEC23F0020E12000EC005F054
:10461E000FC006F0000E086E010E076E8CEC23F034
:10462E00000E0A6E000E0B6E000E0C6E000E0D6E5E
:10463E00DBEC23F0020E12000EC005F00FC006F0E8
:10464E00000E086E020E076E8CEC23F0000E0A6E42
:10465E00000E0B6E000E0C6E000E0D6EDBEC23F0DA
:10466E00040E1200010E056E000183B341EF23F01C
:10467E0043EF23F04DEF23F083957C6997EC24F004
:10468E0093EC24F095EC24F082C005F00550120056
:10469E00F60E0101566F000E576F000E0001EE6F01
:1046AE00000EEF6FF4C0F0F0F5C0F1F0560EF26FA1
:1046BE00010EF36F62EC20F012008C0E5824D96EAE
:1046CE00DA6A000EDA22AECFDFFF582A070E5864E0
:1046DE0073EF23F075EF23F077EF23F0000E586E93
:1046EE00562A120005500702F3CF09F0F4CF0AF054
:1046FE0005500802F3500A2606500702F3500A2608
:10470E0009C005F00AC006F01200000183A792EF5F
:10471E0023F094EF23F09DEF23F005C07DF006C04B
:10472E007EF007C07FF008C080F083971200000E65
:10473E00166E000E176E100EF8EC1FF01A0E196E94
:10474E00F80EE82EFED7192EFCD700F000F012005E
:10475E00C6BAB4EF23F0B6EF23F0BFEF23F0000E8E
:10476E00C76E080EC66E000EC56E130EC86EC68AD4
:10477E001200C6EF23F006EC24F0C0EC1FF000018F
:10478E0083B3CCEF23F0CEEF23F0C2EF23F0120071
:10479E000AC005F00BC006F00CC007F00DC008F003
:1047AE00020E48EC1FF012000AC005F00BC006F016
:1047BE000CC007F00DC008F0000E48EC1FF0120000
:1047CE0099EC24F0FCEC23F0B3EC22F035EC24F061
:1047DE0085EC1FF01200C5BCF7EF23F0FAEF23F0C3
:1047EE00010EFBEF23F0000E1200000EC76E080E36
:1047FE00C66E000EC56E130EC86EC69A12009EA629
:10480E000BEF24F00DEF24F006EF24F01200000160
:10481E0083817C517C2573EC24F0030E1200000181
:10482E008381D8807C3573EC24F0050E12000001D4
:10483E008393000E826F0E0E12000001839187EC9F
:10484E0024F0040E120000018393000E826F0E0EF0
:10485E001200066E065024EC21F01200600ED36E8C
:10486E00000E9B6E120005C0FCF006C0FDF012009B
:10487E0005C0FAF006C0FBF0120005C052F106C0EA
:10488E0053F1120005C054F106C055F1120005C0D7
:10489E0050F106C051F11200000EE1EC21F01200B1
:1048AE007AEC24F0090E12007AEC24F00A0E1200B3
:1048BE0077EC24F0050E12008DEC24F0000E1200A1
:1048CE008FEC24F0010E12008FEC24F0020E120079
:1048DE008FEC24F0010E1200056E05C0C9FF120008
:1048EE00C59AC5881200C58AC5881200AB98AB88D8
:1048FE00120064EC23F012009E861200C9501200C2
:10490E00C5861200050E1200010E1200C58412009B
:10491E00C5821200C58012009D961200C69A120022
:0A492E009E961200D09E12001200A7
:020000040020DA
:08000000FFFFFFFFFFFFFFFF00
:020000040030CA
:0E000000FF081F1EFF0B81FF0FC00FE00F4017
:00000001FF
